:100000000C9407160C9430160C9430160C94301681
:100010000C9430160C9430160C9430160C94301648
:100020000C9430160C9430160C9430160C94301638
:100030000C9430160C9430160C9462160C943016F6
:100040000C9463160C9430160C9430160C943016E5
:100050000C9430160C9430160C9430160C94301608
:100060000C9430160C9430160C9430160000FF00DF
:10007000000000000000000000FF00000000000081
:10008000FFFFFFFFFFFFFFFFFFFFFFFFFFFF00FF7F
:10009000FF0000000000000000FFFFFFFF00FF0066
:1000A000FFFF0000000000000000FFFF0000FF0055
:1000B00000FF00FFFF000000000000000001010140
:1000C000000000000001000101000000000000002D
:1000D00000000000000000FFFF000000FFFF00FF25
:1000E000FFFF000000FF0000000000000000FF0014
:1000F000000000000000FF00000000FF00FFFF0004
:1001000000000000000001010000000000FFFFFFF0
:10011000FFFFFF0000000000FF00FFFFFFFFFFFEEA
:10012000FF00FEFF00FEFFFFFEFFFFFEFFFFFFFFE1
:100130000101FF01020102010101010100000100B2
:10014000FF00FFFFFF0000FF0001010101010101AD
:100150000202020302040504050506070706050559
:10016000050504040403030200FFFEFCFCFCFAF88E
:10017000F7F5F2F1EFECEAE8E5E2DFDEDEDEE0E201
:10018000E4E8ECF0F3F6F9FBFD00020407090C0EBD
:10019000101315181A1E2223242423201D191610AB
:1001A0000C0602FFF9F3EFEBE7E2E0DDDADADADC86
:1001B000E0E3E8ECF0F5F8FD0002050605060705AA
:1001C00005040100FEFBF9F8F6FAFE000305090F2D
:1001D00013161A1D1F20211F1C1E1E1C10FBF2EFE0
:1001E000E6E1DFDADEEAF5F8FA00030305FCF1ECFC
:1001F000E7DED6D4D3D4DEE2E0E5EEF1F3F6F5F3B4
:10020000F9FCF9FB0209111D283140515866747937
:100210007F7F7F7D43F3EFE9BFBDA89ECD01222301
:100220002639363428E8BBB7B3B2AFB5C4E41B33C4
:100230002C2D29211A02DCBAB6C5CBD5E3EF0C2A46
:100240003227160B00E3CEC4B5B4B9B9C9DAE8F564
:10025000FA00FFF9F4E8E2E8EEF8071B33475B6CBD
:10026000787F7E7F797F5BA3BEE883C0B285D72885
:1002700062493449130A18A9808C8EB8D1EAF9185A
:1002800064632D1BECC8D2BB948BB3E7082C3325D9
:10029000383F15E5BCA4A7BBC7C6E30F243025FD36
:1002A000E0D7CFC0BCC7D7F309080913181D1E1B20
:1002B0001E2E3D45505F6F7F7E7E7FE79E01A8A585
:1002C000D48FCA2B5E562C3015F100B58095ADD871
:1002D000FD0D192F5D5711E5C6ADC3C2B0BFF029A2
:1002E000444835150F0AE2BBA9A5C6F20003101C4D
:1002F00014FFE4C7BFD1DADEEDF8040F0E02FB00F5
:1003000004060E131D2F3B434F575D727E7C74FF16
:100310009DDDC9B0E2C6DD2F615C280EF9D4DAB9E3
:10032000809FD703262F28222D23E8B7A9ACC9EB3D
:10033000F3FD1E3F442E09E0CED5D4CBD3EF1334CA
:100340003C2B0AF1F0DDC5BFAABBF704FF0502058F
:1003500007F6DED9EFFEFDFF010D20282323303EF6
:1003600045463340675F510BB3D5E6DBEEDDEA224D
:10037000464516EBE5D9DDD2B2C3F31B2F26110596
:100380000400E0BEBBCFF210130F15201D06E5CD13
:10039000CEE4F6FA000E202B2105ECE3E7EAEAEDC5
:1003A000F80F2116FBE0D2DBDBCED6E8FD0F09F714
:1003B000F0F4F7F2F1F9091D2722202833353535FD
:1003C0003546554D0BB9D4F4EAFEF7E91A44350A1F
:1003D000E4DBD8E7E6CAD506232B1E00F0F6F8E1E9
:1003E000CBD1E909201908070D07F3DDD2DFFB0C9B
:1003F0000C0B10171708EEDFE4F2FCFF020A181EC0
:1004000012FDEFECF0F4F4F50010191508EEDCE045
:10041000E3DFE6F1FE0C0D00F3F1F0EEF1F6FD0C7A
:1004200015140F0D0B0A0E10121D2A2929323D4FEB
:1004300033D6C5EBE3F0FEEB02363E1AF5E5DAE221
:10044000EBD4D0FB1D26220BF5F5F9E5CFD3E8045C
:100450001C1B0B080D05F2DFD6E1FB0B0B0B111576
:100460001203EBDFE5F2FAFE030C17190CF9EEEDBF
:10047000F0F3F4F80512171004FBF7F6F3EFF2FDB2
:1004800009100F080300FCF5EFF0F701090A09084D
:100490000703FBF4F1F5FC010407090B0801FAF668
:1004A000F6F9FBFE0106090905FFFAF9F8F9FAFD6C
:1004B000020608050300EFEFF9F1F4FEFA0004FC70
:1004C000F8F7F7F6F7FBFA00060301030101010054
:1004D00000030605070808080805050808080A09B2
:1004E0000A090606080A0E0F162000EBFCF4EEFBC4
:1004F000F1F107120A01FEF6F4F9EDE6F4FF030844
:1005000006000204FAF0EFF1F70001FF0409070109
:10051000FAF4F4F9FBFAFD03070A06FFFBFCFBF90A
:10052000F8FAFE050806030201FEFBF8F7FB0002DD
:100530000203030301FDFAF9FAFDFF0002040504BA
:1005400001FEFDFCFCFDFE00020404030100FEFDB3
:10055000FCFCFDFF01FFFAFAFBFAFBFBFCFF0203C8
:100560000101010000FFFDFE0000FDFDFFFEFEFC9D
:10057000FAFDFEFEFEFEFEFF00FEFDFF000000FF96
:10058000FF010200FE00010201000102020101035D
:1005900004050402040500FBF9F8F9FAFAFBFF026E
:1005A00002FFFCFBFBFBFAFBFF0204030203020059
:1005B000FEFDFDFF00000103030201010101020233
:1005C00004060605040200FFFEFEFF010303030309
:1005D000020200FDFEFDFDFFFFFF01010100FFFE25
:1005E000FFFEFDFEFDFD01FFFF000000FFFEFDFE22
:1005F000FEFDFDFFFF0101FFFF00FFFEFDFDFEFF11
:10060000FFFF00000100FEFEFDFDFDFDFF000001FB
:100610000000FFFEFDFDFDFE00FFFD0000FDFEFCF5
:10062000FCFEFEFEFEFF00FFFFFEFDFEFEFCFCFCEE
:10063000FBFEFDFBFDFFFEFDFEFCFDFDF9FAFBF9F7
:10064000FBFCFBFCFEFBFBFCFAFAFBF9FAFAFBFBFA
:10065000FAFAFBFBFAFAFAFAFBFAF9FAFAFBFBFCF4
:10066000FDFDFDFDFDFDFDFDFDFDFFFFFF010101A8
:1006700001010103040405060607070708090A0B20
:100680000D0E0F0F10111213141415161618191938
:100690001A1B1C1C1D1D1C1D1C1B1C1B1B1B1A1AA2
:1006A000171615141211100F0D0C0B08080705046E
:1006B00002020100FFFDFBF9F8F7F5F3F1EFEDEBB6
:1006C000EBEAE9E9EAE9E9E9E8E8E9E8E9E9EAEC95
:1006D000EEF0F0F2F3F4F6F8F9FAF9F9F9F9F8F7BF
:1006E000F8F8F7F7F6F6F6F6F6F7F7F8F7F9FAFA94
:1006F000FBFBFCFDFDFDFF000002040405060809EC
:10070000090A0A090A0A0B0C0D0D0F0E0E0E0E0F28
:100710000D0D0B0A0A080706050403010100FFFF7F
:10072000FEFDFCFBF9F8F8F8F7F6F6F6F5F5F4F34C
:10073000F3F3F1F1F0F0F0EFF0F0F0F1F3F3F5F5A1
:10074000F5F5F5F3F4F4F3F4F6F7F8FAFCFCFEFF34
:10075000FF01020102020202020203040505050470
:10076000050402020302020200010101010101016C
:100770000101FF01FEFFFEFDFEFFFF000002000081
:1007800001FFFFFEFDFCFDFCFCFBFCFCFBFDFAFB9E
:10079000FBF9F9F8F7F8F6F8F6F8F8F7FBF9FCFDCD
:1007A000FBFFFCFDFFFBFEFCFBFCFBFCFBFBFCFA88
:1007B000FBFDFCFDFEFCFDFCFDFCFCFAFCFBFCFC77
:1007C000FCFDFDFEFDFDFEFDFDFFFDFFFFFFFFFF4C
:1007D00000000000FF000000010002010101030110
:1007E00003020102020101030101030202030102EB
:1007F00002010301020202020102010103000203DD
:1008000001040203030202010102010101010002CD
:100810000001010001FF000000FF000000FF0000D8
:1008200000000000000001FFFF01FF000000FF00CA
:10083000FFFE00FEFFFEFFFEFEFFFD00FEFF00FECE
:10084000FE00FEFF01FE0100FF01000001000200AA
:1008500002010103FF02010102FF0101000100FF8B
:1008600000FF00FF01FE01FF000100FF010000008A
:10087000010001010002010002000102FF0301006A
:100880000300020301020202020103020203020248
:100890000301030202020102030103020103020237
:1008A000030203030204020303020303020302021E
:1008B00001020101010001000001FF0000FF000032
:1008C000FFFF01FF00000000000100000001000028
:1008D000010000020001010001010101010101020A
:1008E00000020101010102010102000201010101F6
:1008F00002FF02000001FE01FE0000FE01FE00FFFB
:10090000FF01FF00010001010201020101010101DB
:10091000010001000101FF010000010000000001D1
:1009200001010001010100020000010001000001BD
:1009300001000000010001000001000101010100AF
:100940000101000201010201010201010101020194
:1009500002FF020100020001010101010101010188
:100960000001000101FF010001010001000101007F
:1009700001000100010000000001FF01FF00000074
:1009800001FF00FF0000FF01FF00FFFF00FF00006C
:10099000FFFF00FFFFFFFFFE00FEFFFFFD01FD0068
:1009A00000FF01FF0001FE01000001000100000046
:1009B000010001000000FF00000000000000010035
:1009C000000000000000000000000001FFFF00FF29
:1009D000FFFFFFFF00FF000000FF0000FF01FF001E
:1009E0000000FF01FF00FFFF00FE00FFFF00FE0010
:1009F000FF00FF00FFFFFF00FFFF00FF00FF00FF01
:100A000000FFFEFFFEFFFFFEFEFEFEFEFDFDFDFD04
:100A1000FDFDFDFEFCFEFDFDFEFDFDFEFDFFFDFE00
:100A2000FDFEFEFEFEFEFEFEFEFEFEFDFEFEFDFFE8
:100A3000FDFEFDFDFEFCFFFDFEFEFDFFFDFEFDFFDC
:100A4000FDFEFEFDFFFDFFFEFEFEFEFEFEFEFEFFC6
:100A5000FEFFFEFE00FE00FFFE00FFFF00FE00FFA7
:100A60000000FE00FFFF00FFFF00FFFF00FF00FF90
:100A7000FFFFFFFF00FF00FFFF00FEFFFFFEFFFD87
:100A800000FC00FFFE00FE00FE00FFFE01FE00FF76
:100A900000FFFF01FE010000FF00FFFF01FFFFFF5D
:100AA000FFFFFFFFFFFEFFFEFFFEFEFEFEFFFDFE5F
:100AB000FEFEFDFFFEFDFFFEFEFFFEFEFFFFFEFF52
:100AC000FFFFFFFFFEFFFFFFFE00FEFFFFFFFEFF39
:100AD000FFFEFF00FE00FFFFFFFFFFFF00FEFFFE27
:100AE000FFFFFFFFFFFFFF00FF00FFFFFFFFFE0014
:100AF000FD00FFFE01FEFF00FEFFFF00FEFFFFFE08
:100B0000FFFEFFFEFE00FD00FFFD01FEFE01FEFFF9
:100B100000FE00FF00FFFF00FE00FFFFFFFFFE00E2
:100B2000FFFF00FF00FE00FFFE01FD01FE0000FFD1
:100B300001FF01FF0001FF010100010100000000B1
:100B400000000000FF00FF0000FF00FE00FFFF00AC
:100B5000FD00FEFFFFFFFFFE00FEFEFFFEFFFEFEAC
:100B6000FFFD00FDFFFFFD00FD00FEFFFFFEFF009B
:100B7000FD01FD00FFFE01FE01FF0000FF01FE0080
:100B800000FE01FF0000FE01FD01FFFE00FEFFFE72
:100B9000FFFFFE00FE00FFFF00FF00FF01FF00015E
:100BA000FE01FE00FFFF00FF00FFFF00FE00FD0052
:100BB000FEFF00FEFFFFFEFFFFFFFE00FE00FEFF48
:100BC000FFFFFF00FE00FFFF0000FF00FF0000FF2F
:100BD000FE01FE00FFFFFFFFFEFFFEFFFEFFFEFF28
:100BE000FEFEFE00FE00FFFFFF00FF00FF00FF0013
:100BF000FF0000000000FF000000000000000000F7
:100C0000FF01FF000000000000000000000000FFE6
:100C10000100FF0100000000FF0000FF00000000D5
:100C2000FF00FF0000FF02000101000100010100C0
:100C3000020000010000000000000000FF000000B2
:100C4000FF01FE01FE01FFFF01FF0100FF01FF00A8
:100C5000000001FF0000FF01000000000000000094
:100C6000FF0100000000FF0000FF00FFFF00FE008A
:100C7000FFFF00FF01FFFF00FF00FFFF00FE00FF7E
:100C8000FF00FF0000FF00FF00FF0000000000FF6A
:100C90000000000001000000000100010001FF0150
:100CA000000000010001FF01FF0100000000000141
:100CB000FF02FF0100000000FF0100000000000132
:100CC000FF01FF01FF0000FF00FFFF00FF00FF0129
:100CD000FE01FFFF00FFFF00FFFFFFFF00FE01FE20
:100CE0000000FE00FFFF00FE00FE00FFFF00FE0010
:100CF000FF00FFFF00FF0000FF00FF00FF0000FEFD
:100D000000FFFF00FF00FFFFFFFF00FFFFFFFFFFEF
:100D1000FF00FFFF00FF00FFFFFFFFFF00FFFFFFDF
:100D2000FF00FF00FFFFFFFF00FF0000FF00FF00CC
:100D300000000000000000000000000000000000B3
:100D400000000000000000000000000000000000A3
:100D50000000000000000000000000000000000093
:100D60000000000000000000000000000000000083
:100D70000000000000000000000000000000000073
:100D80000000000000000000000000000000000063
:100D90000000000000000000000000000000000053
:100DA0000000000000000000000000000000000043
:100DB0000000000000000000000000000000000033
:100DC0000000000000000000000000000000000023
:100DD0000000000000000000000000000000000013
:100DE0000000000000000000000000000000000003
:100DF00000000000000000000000000000FFFFFFF6
:100E0000FFFFFFFFFFFFFFFFFFFFFFFFFFFFFFFFF2
:100E1000FFFFFFFFFFFFFFFFFFFFFFFFFFFFFFFFE2
:100E2000FFFFFFFFFFFFFFFFFFFFFFFFFFFFFFFFD2
:100E3000FFFFFFFFFFFFFFFFFFFFFFFFFFFFFFFFC2
:100E4000FFFFFFFFFFFFFFFFFFFFFFFFFFFFFFFFB2
:100E5000FFFFFFFFFFFFFFFFFFFFFFFFFFFFFFFFA2
:100E6000FFFFFFFFFFFFFFFFFFFFFFFFFFFFFFFF92
:100E7000FFFFFFFFFFFFFFFFFFFFFFFFFFFFFFFF82
:100E8000FFFFFFFFFEFEFEFEFFFEFEFFFEFFFEFE7B
:100E9000FFFEFEFEFEFEFDFFFEFEFFFEFEFFFEFF6E
:100EA000FEFEFFFEFFFFFFFFFE00FEFEFFFEFFFE59
:100EB000FFFEFFFEFFFEFFFFFD00FEFEFFFEFFFD4B
:100EC000FFFEFEFFFD00FC00FEFD00FB00FDFD003F
:100ED000FBFFFCFDFEFCFEFBFDFDFDFDFCFDFCFD46
:100EE000FDFBFEFBFDFCFCFDFDFDFCFDFDFDFDFD38
:100EF000FDFEFDFDFDFDFEFDFEFDFEFFFE00FF0112
:100F0000000002FE01000001FF01010203020404CF
:100F1000050504050505050605050606060606067B
:100F2000060505050504040503040403040403047D
:100F3000030303040303040303040303040303057B
:100F40000304050404040404050404040304030363
:100F50000303040304040404040504040303030258
:100F6000020202010101010101010101010101016E
:100F7000000000000000000001010000000000006F
:100F8000000000FFFF00FFFEFFFEFEFEFDFDFCFD7A
:100F9000FDFDFDFDFDFDFEFEFEFFFFFFFFFF00006E
:100FA000FFFFFF00000000FF0000FFFFFEFEFEFE4F
:100FB000FEFEFEFDFDFDFDFDFDFDFDFCFCFCFCFC63
:100FC000FCFCFCFCFCFBFCFCFCFCFCFCFCFCFCFD61
:100FD000FDFCFCFDFDFDFDFCFDFCFCFDFDFDFDFD46
:100FE000FDFDFEFDFEFDFDFEFEFEFEFEFEFEFEFE26
:100FF000FEFDFEFEFEFEFEFDFEFEFEFEFEFEFEFE13
:10100000FFFFFFFFFFFFFFFF00FFFF0000000000EA
:10101000FF000000000000000000000000000000D1
:1010200000000000000000000001000000000000BF
:101030000000000000000000000000000000FFFFB2
:10104000FFFFFFFFFFFFFFFFFFFF0000FFFFFFFFAE
:10105000FFFFFFFFFFFFFFFFFFFFFFFFFFFFFFFFA0
:10106000FFFFFFFFFFFFFF000000FFFFFFFFFFFF8D
:10107000FFFFFFFFFFFFFFFEFEFEFEFEFEFEFEFE89
:10108000FEFEFEFEFEFEFEFEFEFEFEFEFEFEFEFE80
:10109000FEFEFEFEFEFEFEFEFEFEFEFEFEFEFEFE70
:1010A000FEFEFEFEFEFEFEFEFEFEFEFEFEFEFEFE60
:1010B000FFFFFFFFFFFFFFFFFFFFFFFFFFFF00003E
:1010C0000000000000000000010101010102020215
:1010D00002020202020202020202020202020202F0
:1010E000020101010100000000000000FFFFFFFFFE
:1010F000FFFFFFFFFFFFFFFFFFFFFFFFFFFFFFFF00
:10110000FFFFFFFFFFFFFFFFFFFFFFFF00000000EB
:1011100000000000000000000100000000000000CE
:1011200000000000000000000101010100000101B9
:1011300001010101010101000000000000000000A8
:10114000000000000000000000000000000000009F
:101150000000010101010102020202020202020278
:10116000020202020201010101010101010101016A
:10117000010001010101010100000000000000FF69
:10118000FFFFFFFFFFFFFFFFFFFFFEFEFEFEFEFF74
:10119000FFFFFFFFFFFFFFFFFFFFFFFFFFFFFFFF5F
:1011A000FFFFFFFFFFFFFFFFFFFFFFFFFF0000004C
:1011B000000000000000000000000000000000FF30
:1011C000000000000000000000000000000000001F
:1011D000000000000000000000FFFFFFFFFFFFFF16
:1011E000FFFFFFFFFFFFFFFF00FFFF00FFFFFF000C
:1011F000FFFFFFFFFFFFFFFFFFFFFFFFFFFFFFFFFF
:10120000FFFFFFFFFFFFFFFFFFFFFFFFFFFFFFFFEE
:10121000FFFFFFFFFFFFFFFFFFFFFFFFFFFFFFFFDE
:10122000FFFFFFFFFFFFFFFFFFFFFFFFFFFFFFFFCE
:10123000FFFFFFFFFFFFFFFFFFFFFFFFFF000000BB
:10124000000000000000000000000000000000009E
:1012500000000000000000FFFFFFFFFFFFFFFFFF97
:10126000FFFFFFFFFFFFFFFFFFFFFFFFFFFFFFFF8E
:10127000FFFFFFFFFFFFFFFFFFFFFFFFFFFFFFFF7E
:10128000000000000000000000000000FFFFFFFF62
:10129000FFFFFFFFFFFFFFFFFFFFFFFFFFFFFFFF5E
:1012A000FFFFFFFFFFFFFFFFFFFFFFFFFFFFFFFF4E
:1012B000FFFFFFFFFFFFFFFFFFFF000000FF000039
:1012C000000000000000000000000000000000001E
:1012D000000000000000000000000000000000000E
:1012E00000FFFFFFFFFFFFFFFFFFFFFFFFFFFFFF0D
:1012F000FFFFFFFFFFFFFFFFFFFFFFFFFFFFFFFFFE
:10130000FFFFFFFFFFFFFFFFFFFFFFFFFFFFFFFFED
:10131000FFFFFFFFFFFFFFFFFFFFFFFFFFFFFFFFDD
:10132000FFFFFFFFFFFFFFFFFFFFFFFFFFFFFFFFCD
:10133000FFFFFFFFFFFFFFFFFFFFFFFFFFFFFFFFBD
:10134000FFFFFFFFFFFFFFFFFFFFFFFFFFFFFFFFAD
:10135000FFFFFFFFFFFFFFFFFFFF00000000000097
:101360000000000000000001010101010101010273
:101370000202020202030302020202020101000051
:10138000FFFFFFFEFEFEFDFDFDFDFDFDFDFDFDFD84
:10139000FEFEFEFEFEFFFFFFFFFF0000000000005C
:1013A0000000000101010101010101010100000033
:1013B000000000000000000000000000000000002D
:1013C000000000000000000000000000000000001D
:1013D000000000000000000000000000000000000D
:1013E0000000000000000000FFFFFFFFFFFFFEFE07
:1013F000FEFEFEFEFEFEFEFEFEFEFEFEFEFFFFFF0A
:10140000FFFF00FF000000000000000000000000DF
:1014100000010101010101010101010101010101BD
:1014200001010101010101010101010101010101AC
:1014300001010101010101010000000000FFFFFFA7
:10144000FFFFFEFEFEFEFEFEFEFEFEFEFEFEFEFEBA
:10145000FEFEFEFEFEFEFEFEFEFDFDFDFDFDFCFCB5
:10146000FCFCFCFCFCFCFCFDFDFDFDFEFFFFFF00A9
:101470000101020203030304040505060607080828
:101480000909080708070604040201FFFEFEFCFB29
:10149000FAFAF9F8F8F8F8F7F8F9F9F9F9FBFBFBBB
:1014A000FCFDFEFDFEFEFFFF000001010101010247
:1014B0000101020101010101010101000000000020
:1014C00000FFFFFFFFFFFFFFFFFEFEFEFEFDFDFC36
:1014D000FCFCFBFBFBFAFAFAFAFAFBFBFBFCFDFE59
:1014E000FF000001020304040505050606070707BF
:1014F000070808080809090A0A0A0B080808070665
:1015000003040100FEFDFCFAF9F8F9F8F7F7F7F724
:10151000F7F7F8F9F9F9FBFBFBFCFDFEFEFEFF0017
:1015200000000101010101020202020202010101A7
:101530000101000000000000FFFFFEFDFDFCFBFBC1
:10154000FAFAF9F9F8F8F7F8F8F8F9F9FAFBFCFD06
:10155000FEFF01020304050607070809090A0A0B32
:101560000B0C0C0D0D0E0E0B0B0B0A0805060201E1
:10157000FEFDFCF9F8F7F7F5F4F5F5F4F4F5F6F6F9
:10158000F7F7F9F9FAFBFCFDFDFEFF000000010191
:101590000201020202020202020101010100000036
:1015A00000FFFFFFFFFEFDFDFCFBFBFAF9F8F7F77C
:1015B000F6F6F6F6F6F6F7F8F9FAFBFCFE0001038C
:1015C00004060708090A0B0B0C0C0D0E0F10101166
:1015D000120E0E0F0D0B08080402FFFEFCF9F7F5C2
:1015E000F5F4F2F3F3F2F1F2F4F5F6F6F8F8F9FAAD
:1015F000FCFEFEFEFF0000010203030202030303E0
:1016000003030202010102010000FFFFFFFFFEFED3
:10161000FCFBFBFAF9F8F7F6F5F4F4F4F4F4F4F55E
:10162000F6F8F9FBFCFE0002040607090A0B0D0E92
:101630000F10111214151716121413110E0B0B059F
:1016400002FEFEFBF8F5F3F3F0EFF0F0EFEEF0F151
:10165000F3F3F5F9F8F8F9FD0103030505020508B0
:101660000B0A05020302010504FFFBF9FD01FFFF60
:10167000FFF9F8FBF9F2E6DFE0DFDEE2E1E0E3EAC2
:10168000F4F9F6F8FAFC0207080708101A1E2023DE
:101690002422232F38393D4047450AEAFCE5E0E99A
:1016A000E5E7E6F41C210206FBE6EBE8E6DDCBDF2E
:1016B000FEFF091302FF00FF02EADDE6E8F2080977
:1016C000050706120DFDF8EBE4F3FBFC00FE071026
:1016D0000D0F03F1F1F4F3F4E1D1E3F2F8FAEEE9DE
:1016E000ECF1F5EBE1E9F2FD0807090D121B1A1503
:1016F00017161C24212632404C4E5340DEC6F3D22E
:10170000E0FAE8F61231360CECE8CBD6E9D3D9EDA5
:101710000624261907EAE8EFDFDBDDE50318211DC3
:101720000900FEF5EDE4DCE9FD0F1B150F0B0501CB
:10173000F7E7E4EAF8090F100E0B09F0CBCCD3D889
:10174000EFF8FAFFFF00F6E8E8E6EBFC040C1317ED
:10175000211E1A1B151A1D1D2938434D515B26B732
:10176000D1E7C4FEFFF008283C27F5DFCBBCE7E556
:10177000DEF4071F2E2107E5D4E0DFDFEAEF0520C6
:10178000281F07F1EAE6E7E9E7F3091B231B09FB3A
:10179000F3F0EEEAEBF707171B13FFE3CFCBD5DF30
:1017A000E7F6020808FDEDE2E2EAF4FF09121C2068
:1017B0001914110C152022304650525F5EEA9CDE4F
:1017C000CCD61400011E3F3E0BDAC8ADC9F3E7F3D7
:1017D000091F302B0EE6C5CDDEE2F0F907202D23E0
:1017E00007E7D9DBE2EDF1FA0E21261B03EDE4E673
:1017F000EDF0F501101E1D0CEBC9CAD6D8E9F3FABD
:101800000A0E03F0E3E2E7F2FC020B131717100BCA
:101810000C1521232D384157566042A1A8F0C1076D
:1018200016F8102E482AE0C2B8AFEFF6EC02172FD8
:101830003115EDC7BFDFE8EEFB051C2E2709E6D307
:10184000DAE3EEF5F90C21281B00E8E1E5EFF4F608
:1018500001131A0EFDE2C9CFDCDEEAF5FD0503F83F
:10186000E9E3EBF4FF060B191F1F1C14141F2A36A3
:101870004451506564C69CEBC1F215FC0A284B39F3
:10188000F1CBBDADE1F0E6F91531351BF5CEC2DC8B
:10189000E3E7F2041D312B0DEBD9DEE3E8EDF60CA6
:1018A000252B1B01ECE6E7EAEBEF0011140EF5CF58
:1018B000CEDADCE5EBF5040902F0E6ECF5FD050D0A
:1018C00019242722191B2A363E4D52704D9EBDF415
:1018D000BF0A05F41138522ADDCEBEBFF3E1E1FDA7
:1018E00021392F0BE8CAD2E5DDE0EF0C29331EFECB
:1018F000E4E2E7E3E2E8FC1A2C240EF8EFEDEAE577
:10190000E4F20A131300DDD5DADDE0E1EDFE0806AE
:10191000F5E9EDF3FAFF06152127251C1A26353FB8
:101920004D525D4DBBAAF5CAF807F613354B2AE3B5
:10193000CCC7C2EAE3E2FF24392C07E9D1D4E2DBC9
:10194000DDF1102A2F19FBE6E4E5E0DEE9001C2AB0
:10195000200BF9F0EBE9E3E4F60D1D1AFEECE6D3FB
:10196000CDD3DCEF020A04F8F2ECE8ECF50210202B
:1019700026211F1E1E252D3B4D4E694DA7B5F5CBCB
:10198000FDFEF3133B5025DACDC5CAECDEE0012B9A
:101990003D2901E6D2DBE4D9DCF4172F2D12F6E65F
:1019A000E7E6DDDBEB0722291904F7F3ECDEDDE9DE
:1019B000FC141E1604F4E7CEC9D3DDF4060805FBBB
:1019C000F2E8E3E7EF0010171F221C18131322316F
:1019D0003D4A4F5A57E19DDCD5E506FA0E314933B1
:1019E000EFC6C4C2DEE6E2FC223A2F0AE7D2D1DE1D
:1019F000DDDEF2132C2F18F9E5E1E3DEDDEB051F48
:101A0000291D06F5EEE5DFE0E6FC131B170AF5DC01
:101A1000CFD1D2E0F6040B08FDEFE5E4E8EFFF0DCF
:101A2000151D1E160F11151A252F35424E5557E359
:101A30008ADFE0E60BF60B304831E8BDC7C8E3E9C2
:101A4000E0FC253C2B00DFD3D5E3DEDCF3182F2BA5
:101A50000FF2E4E4E6DEDCED0B232715FFF3F0E6FE
:101A6000DBE0EA01181C1206FBF5E3CACBDCF0034D
:101A70000500FEF9F0E4DCE5F3010A0C1014110C8A
:101A8000090C171F21252E374143474BD391EEE513
:101A9000EB0CF80D2E3F22DEC0D1D0E7EAE302279F
:101AA000351EF6E0DBDEE6DFDFFA1C2B2005F0E971
:101AB000EAE8DEDFF410211E0DFDF8F5E3DEE7F0C5
:101AC0000717160E05FDF4E7DAD3DEF2FE01FFFC80
:101AD000F9F3EBE4E6F2FE05080A0D0F0A090B1014
:101AE000191F1F1E23292F383D3D4001A7DAF8E3B7
:101AF00002FB04243425F3CDD8DCE0E9E3F91D2D05
:101B00001F01EBE8E5E5DFDEF313231D0AFBF6F228
:101B1000EBE0DEF00918180F0603FEEDE1E5F00139
:101B20000E100E0C09FFF1E6E0E3EFF8F8F9FDFE08
:101B3000F7F0EBEBF0F7FAFD020507060606070BD8
:101B40001317191C1D1B191D1F253635373F0FC4D0
:101B5000D4F4E4F1F8FF1A2E2701E0E0E2DDE0DF43
:101B6000F011261F0AF9F5EEE5DCD9EA0718180F7F
:101B70000704FDF0E1DCE9FD0B0F0F0F0F0AFBEC92
:101B8000E4E5F903030A0F121002F3E9EAF1F5F5AF
:101B9000F2FA04FFF4EBE8EFF4F2F2F8010500FAD0
:101BA000F9FD0203060A0E1414151511141411156B
:101BB000171A222321272B2E32ECB7F2F6E9F9F37C
:101BC00002212917F0DEEFE9E3DFDFF8181E10FF2E
:101BD000FBFEF5E6DBDCF30A0E0A080B0D03F1E46D
:101BE000E5F2FF01030912160DFDF1EBF4FAF4F929
:101BF000030D130D02FAF6F7F2EEF2F5FE04FEFA0B
:101C0000F7F5F5EFEBF2F9FEFFFEFF00FFFCF9FB45
:101C100001070A0C0E0E11120E101211100F1112E4
:101C20001012141215171A1F1C1B1A07E8E2F2F102
:101C3000EDF5FC07121002F4F0F1EAE4E6EEFD091E
:101C40000A060404FFF5EBE8EDF6FE0003090D0AB1
:101C500001F7F2F2F4F5F7FC050A0B0702FEFBF7B9
:101C6000F3F2F6FD020404010002FCF1F0F1F5F8D4
:101C7000F5F8FDFEFFFAF2F7FBF8F9FBFF030404A9
:101C800003050A0A08080B10120D0E11100F0A06A0
:101C9000080B0D090811131216150C0F1A1402F671
:101CA000EEEEF8F5EFF5010A0A00F9F7F6F5ECE7C4
:101CB000EEF9000100010504FDF3EFF2F6F8F8FB80
:101CC00002080904FFFDFCFAF6F4F7FD0203030421
:101CD0000403FEF9F7F7F8FAFBFDFF010401FCFA33
:101CE000F8F9F8F4F5FBFEFCFCFDFCFCFBFAFAFA53
:101CF000FCFFFFFF020405050506080807090D0D96
:101D00000D0F0B080904040705060706050708045C
:101D10000407070607060A0803080A0A0A0601F765
:101D2000F0F9F5EEF4F9FC0201FEFDFCFBF5F0F232
:101D3000F4F7FAFBFE020402FEFBFAF9F8F7F8FBEF
:101D4000FF0101010101FFFCF9F9F9FAFAFCFE00BB
:101D50000100FFFEFCFBF8F4F8FAF7F8FCFEFFFECA
:101D6000FCFDFCFCFBF8F7FAFEFBFBFF010101FFA9
:101D7000FF010202010407080808090A090807050B
:101D80000505010207030105060302020101020025
:101D9000FF0204020001010000FF00010102010036
:101DA0000100FE00FDFDFFFCFCFEFDFDFCFBFCFA5E
:101DB000F9F9F7F6F8F8F9F9FAFBFCFCFCFBFBFC87
:101DC000FBFBF7F0F7FCF3F2F8F8F9F8F7F9FAFC97
:101DD000FBF8FBFFFEFEFF000204040405060705F6
:101DE00005080906060C08050807080D09070D1265
:101DF0001412151601F7FAF5ECEAECF4FC000404F1
:101E0000060902F8F3F1EFEEEDF0F8FF0304040722
:101E10000601FBF6F4F4F3F3F7FC020506060705EA
:101E200001FCF8F7F7F7F8FAFF03050606060401C8
:101E3000FDFAF9F9F9FAFC0003050505050300FDB3
:101E4000FBFBFAFBFCFE00020403020503FFFEFDA0
:101E5000FBFCFBFCFEFF01020203030200FFFEFD90
:101E6000FDF9F7F9FAF7F5FAFBFBFDFEFF00FFFFBE
:101E7000FF00010101030505050607070605030329
:101E80000404040406060505070604050606040402
:101E900005040404040607060607070707070808E1
:101EA0000A0A0709110F04FBFD02F9EDEFF6F9F933
:101EB000F7FB02060400FE0201FAF4F5F8F9F7F662
:101EC000FB01030201040604FFFCFCFDFBF8F9FC26
:101ED000FF00000205060402010201FDFBFCFDFDFE
:101EE000FDFD0002020202020201FEFDFCF9F8F80B
:101EF000F7F4F4F7F9F7F8FDFFFEFEFF010100012A
:101F00000203040506070809090A0B0B0B09080957
:101F10000905040605040405050405060504040571
:101F200005040505050708080A0C0E1109FE03073C
:101F3000FBF0F1F6F7EFEEF7FDFCFDFE0307040101
:101F4000000000FBF6F6F9F8F6F6F9FEFFFE0003D6
:101F5000050401010201FEFCFBFCFBFAFAFDFEFF99
:101F6000FF0003020203010101FFFDFCFCFCFAF784
:101F7000F7F8F8F6F4F6F8F8F7F9FCFCFCFD0001C8
:101F80000102030505050607070808090A09090AE9
:101F900009080908080706070705050605040405DA
:101FA000070605080E0C02010B08FBF6FC00F7ED16
:101FB000F2FBF8F2F2FA00FCF9FE030300FE010363
:101FC00000FDFCFDFEFCF9F9FBFCFBFAFCFFFFFE4B
:101FD000FE010301FF000201FFFEFFFFFDFBFCFD10
:101FE000FDFCFBFDFEFDFCFAFBFDFBF8F8FAFBF83F
:101FF000F8FBFEFDFCFE02040303060807060709C2
:10200000090706070806050507060405060606056E
:102010000708090402060700FCFD00FEF6F4FAFBBF
:10202000F6F3F6FBFAF6F7FCFFFCFAFD0100FDFD06
:102030000002FFFCFE00FFFCFCFEFFFDFCFDFEFFBE
:10204000FEFDFE00FFFEFF000100FF000000FFFF9D
:10205000FF00FFFEFEFFFFFEFEFFFFFFFEFEFFFF95
:10206000FFFFFF0000FFFFFF00FFFFFFFFFFFEFE7F
:10207000FFFFFEFDFDFEFDFCFCFDFDFDFCFDFEFE8B
:10208000FEFEFF00FFFF000101000102020101024C
:102090000302020203030202030303020303030316
:1020A000030202030201000001FFFEFDFEFEFDFB34
:1020B000FCFDFDFBFBFCFDFCFCFCFEFEFDFDFF0052
:1020C000FFFFFF000100FF0001010000010100000F
:1020D0000001000000000000FF000000FFFF000002
:1020E00000FFFF0000FFFFFF00FFFFFF00FFFFFFFB
:1020F000FF00FFFFFFFFFFFFFEFFFFFEFEFEFEFEF5
:10210000FDFDFDFDFDFDFDFDFDFDFDFEFEFFFFFFF7
:1021100000000000010101010101020101020202AF
:102120000202020202020302020202020100000095
:10213000FFFEFDFDFDFCFBFCFCFBFBFBFBFCFBFBDE
:10214000FCFCFDFCFCFDFEFEFEFEFFFFFFFFFF00B2
:1021500000FFFF000000FF000000FFFF0000FFFF86
:10216000FFFFFFFFFFFFFFFFFFFFFFFFFFFEFFFF80
:10217000FFFEFFFFFFFEFEFEFEFEFEFDFDFDFDFC81
:10218000FCFCFCFCFCFDFDFDFDFEFEFEFFFF000077
:102190000000010102020202020202020202020225
:1021A000030303030202020201000000FFFEFEFD22
:1021B000FDFCFCFCFCFCFBFBFBFCFCFBFCFCFDFD60
:1021C000FDFDFEFEFEFFFF0000FF0000000000001E
:1021D0000000000000000000000000FFFF0000FF02
:1021E000FFFFFFFFFFFFFFFFFFFFFFFFFFFFFFFFFF
:1021F000FFFFFFFFFFFFFEFEFEFEFEFEFDFDFDFDFD
:10220000FDFDFEFEFEFEFFFFFF00000000010101DC
:102210000102020202020202030303030304030396
:102220000303030201010100FFFFFEFEFDFCFCFCB5
:10223000FCFCFBFCFCFCFCFCFDFDFDFDFEFEFFFFD1
:10224000FFFF00000000010100000101010000018A
:102250000100000000000000000000FFFF0000FF80
:10226000FF0000FFFFFF0000FFFF000000FF000075
:10227000FFFFFFFFFFFFFEFEFFFEFEFEFEFEFEFE77
:10228000FEFEFEFEFEFEFFFFFFFFFF00000000015E
:102290000101010202020203030303040404040413
:1022A0000404030202020100FFFFFFFEFDFDFDFD2D
:1022B000FCFBFCFDFCFCFCFDFEFDFDFEFFFFFFFF4B
:1022C0000000000000010101000101010000010106
:1022D00000000001010000000100FF000000FFFFFE
:1022E000000000FFFF0000FFFF000000FFFF0000F4
:1022F000FFFFFF0000FFFFFFFFFFFEFEFEFFFFFEF0
:10230000FDFEFFFEFEFDFEFFFEFEFEFF00FFFEFFE8
:10231000000000FF000101000101020202030405A8
:1023200006030104070D0900030903F9F8FDFFF690
:10233000EFF6FDF9F2F3FD01FBF6FD0504FDFC05EA
:102340000802FCFF0504FCF9FF01FDF8F9FFFFFBA3
:10235000FAFE0100FDFE020200FF010301FEFF0084
:1023600000FEFDFEFFFEFDFDFEFEFDFDFFFFFEFF8C
:10237000FFFFFFFFFF00FFFEFFFFFFFEFEFEFFFE71
:10238000FEFEFFFFFFFFFF00FFFFFF0000FFFFFF5C
:10239000FFFFFFFFFFFEFEFEFEFFFDFBFDFCFBFB64
:1023A000FAFBFCFAFAFCFCFCFBFAFEFEFCFDFDFF6E
:1023B000FFFCFE00000000020404040708090B0CE7
:1023C0000F1010130A050C0B00F9F7FEFCEFEEF7E7
:1023D000FAF7F2F60102FDFF02060601010300FF13
:1023E000FEFAFAFBFAFAF8F8FDFEFDFE000404011D
:1023F0000204040200FF01FFFDFDFDFDFEFEFEFFE5
:10240000000102010203030301010200FFFFFEFFBE
:10241000FFFEFEFFFF0000000202020201010201B6
:1024200000000000FFFFFF000000000101010101AA
:10243000010101010000000000FF00000000000099
:102440000101010101010100000000FF00FFF9FD91
:1024500001F9F7F8FBFDF7F7FEFFFEFFFF020301AE
:102460000302000302FFFFFF0101FE00020203025C
:1024700003050405060505070707090B0E0F1011D4
:10248000130F030307FEF4F2F4F6F2F0F7FAFC017F
:10249000030305070703FDF9F9F8F2EDF0F5F7F787
:1024A000FA000507080808070602FDFBFBF9F7F626
:1024B000F8FBFDFF010406070706040302FFFCFB0F
:1024C000FBFAFAFBFDFF010203040505040200FF0D
:1024D000FEFDFBFBFCFDFDFE000103030303030205
:1024E0000100FFFEFDFDFDFDFEFF00FF00FFFF0000
:1024F000FCFAFEFBF9FBFAFBFCFCFEFEFE0100FF12
:102500000000FFFDFBFCFCFBFBFAFCFEFDFF0001F5
:102510000404030404050403030304050404060679
:102520000605040505060605050707070707080A47
:102530000B0B0A0B08030300FCFBF9F5F5F5F5F5A9
:10254000F4F9FDFCFCFE0000FFFDFCFCFDFDFAFBC8
:10255000FEFFFFFE00020100000000FFFEFEFBF98F
:10256000FCFCF9F8FAFCFAF8F9F9F9FAF9F8FAFDCD
:10257000FDFCFD0001000001030302030304040449
:1025800004040506050405050405070404070705FA
:102590000607070706080706090A0703010403FEE2
:1025A000FDFEFEFFFDFBFBFCFEFCFAFBFBFBFAF96C
:1025B000F9F9F9FAF9F9FAFAF9FAFAFAFAF9FAFA82
:1025C000F9F9F8F8F8F9F9F8FAFBFBFCFCFDFDFE67
:1025D000FEFEFF00010000000001010001020302F5
:1025E00002020305050405070705050505050403A3
:1025F000040505050606060805040805010405018D
:1026000000030600FE02FFFDFEFCF3EDF2F2E9EA34
:10261000EDEEF3F3F2F2F6FAF8F4F7FAFAFAF9FA61
:10262000FBFEFFFDFE01030202020303030303049A
:10263000060505060706060605050505060708083A
:102640000808080808060506050303020101010140
:10265000000101010101000000FFFEFEFEFEFEFD83
:10266000FDFEFEFEFEFDFDFEFEFEFEFEFFFFFFFF89
:10267000FFFFFFFFFFFFFFFFFEFF00FF0101010261
:10268000030303040404040504040404040303040E
:1026900003030504050606060607080808070607DB
:1026A00007040506030405040303030202030201F1
:1026B0000101000000FFFFFEFEFEFEFEFDFDFFFF2C
:1026C000FF000000010101010102020203030303F4
:1026D00003040304030203020101010100010100DC
:1026E0000000FEFFFFFEFEFEFEFEFEFEFEFEFFFF02
:1026F000FFFFFEFFFF0000000001FFFFFFFFFF00E4
:102700000000010100FF00000000FF0000FFFFFECD
:10271000FEFEFEFEFEFDFEFEFDFDFCFCFCFCFBFBEA
:10272000FBFCFCFCFBFBFBFBFBFBFBFBFBFAFAFAF9
:10273000FAFAFAFBFCFBFBFBFBFBFBFAFBFBFBFBEC
:10274000FBFBFBFBFBFBFBFCFBFBFCFCFDFDFEFFCB
:10275000FF0001010202020202020302020202025F
:10276000020201000100FFFFFFFEFEFEFEFDFDFD77
:10277000FDFDFDFDFDFDFEFEFEFFFF01010101016E
:10278000010101010102020101000000FFFFFFFF42
:10279000FFFFFFFEFEFEFDFCFCFCFCFCFCFCFCFC69
:1027A000FBFBFCFCFCFCFDFDFDFDFDFDFDFDFDFD61
:1027B000FDFDFDFCFCFCFCFCFBFBFBFBFBFCFCFD5A
:1027C000FDFDFDFDFEFEFEFFFF0001010101010117
:1027D00001010101010203030404040404040504CB
:1027E00004040403030303030302020201010100C2
:1027F00000FFFFFFFFFFFFFFFF00000000010101DE
:1028000001010000FF0101FF0000FFFEFEFDFCFCD6
:10281000FCFBFBFBFCFCFDFDFDFEFEFFFFFFFF00E4
:10282000000101010202030303040404040405057A
:10283000050606060505050505050504040404034B
:102840000303020201010101000000FFFFFFFFFE80
:10285000FEFFFFFFFEFEFEFDFCFCFCFCFCFBFCFBA8
:10286000FBFBFBFBFBFBFBFBFBFBFBFBFBFBFBFBB8
:10287000FAFAFAFAFAFAFAFAF9FAFAFAFAFAFBFBB7
:10288000FBFCFCFDFDFDFDFEFEFEFEFEFEFEFEFE73
:10289000FEFEFEFEFFFEFEFEFEFEFEFEFEFEFEFF56
:1028A000FFFFFFFFFFFFFF0000000000000000002F
:1028B0000101010101010101010101010101010108
:1028C00001010101010101010202020202020202F0
:1028D00002020202020303030303030303030303CD
:1028E00003030303030303030303030303030302B9
:1028F00002020202020202020202010101010101BE
:1029000001010101010101000001010101010101B9
:1029100001010101010101010101010101010101A7
:102920000101010201010101010101010101010196
:1029300001010000000000000000FFFFFFFFFFFF9B
:10294000FFFFFFFEFEFEFEFEFEFEFEFEFEFEFEFEA4
:10295000FEFEFEFEFEFEFEFEFEFEFEFEFEFEFEFE97
:10296000FEFEFEFEFEFEFEFEFEFEFEFEFEFFFFFF84
:10297000FFFFFFFFFFFFFFFFFFFFFFFFFFFFFFFF67
:10298000FFFFFFFFFFFFFFFFFFFFFFFFFFFFFFFF57
:10299000FFFFFFFFFFFFFFFFFFFFFFFFFFFFFFFF47
:1029A000FFFFFFFFFFFFFFFFFFFFFFFFFFFFFEFE39
:1029B000FEFEFEFEFEFEFEFEFEFEFEFEFEFEFEFE37
:1029C000FEFEFEFEFEFEFEFEFEFEFEFEFEFEFEFE27
:1029D000FEFEFEFEFFFFFFFEFFFFFFFFFFFFFFFF0C
:1029E000FFFFFFFFFFFFFFFFFFFFFFFFFF000000F4
:1029F00000000000000000000000010101010101D1
:102A000001010101020202020202020202020101AC
:102A100001010101010101000000000000000000AF
:102A2000000000FFFFFFFFFFFFFFFFFFFFFFFFFFB3
:102A3000FFFFFFFFFFFFFFFFFFFFFFFFFFFFFFFFA6
:102A4000FFFFFFFFFFFFFFFFFFFFFFFFFFFFFFFF96
:102A5000FFFFFFFFFFFFFFFEFEFEFEFEFEFEFEFE8F
:102A6000FEFEFEFEFEFEFFFFFFFFFFFFFFFFFFFF7C
:102A7000FFFFFFFFFFFFFFFFFFFFFFFFFFFFFFFF66
:102A8000FFFFFFFFFFFFFFFFFFFFFFFFFFFFFFFF56
:102A9000FFFFFFFFFFFFFFFFFFFFFFFFFFFFFFFF46
:102AA000FFFFFFFFFFFFFFFFFFFFFFFFFFFFFFFF36
:102AB000FFFFFFFFFFFFFFFFFFFFFFFFFFFFFFFF26
:102AC000FFFFFFFFFFFFFFFFFFFFFFFFFFFFFFFF16
:102AD000FFFFFFFFFFFFFFFFFFFFFFFFFFFFFFFF06
:102AE000FFFFFFFFFFFFFFFFFFFFFFFFFFFFFFFFF6
:102AF000FFFFFFFFFF0000FFFFFFFFFFFFFFFFFFE4
:102B0000FFFFFFFFFFFFFFFFFFFFFFFFFFFFFFFFD5
:102B1000FFFFFFFFFFFFFFFFFFFFFFFFFFFFFFFFC5
:102B2000FFFFFF00000000000000000000000000A8
:102B30000000000000000000000000000000000095
:102B40000000000000000000000000000000000085
:102B50000000000000000000000000000000000075
:102B60000000000000000000000000000000000065
:102B70000000000000000000000000000000000055
:102B80000000000000000000000000000000000045
:102B90000000000000000000000000000000000035
:102BA0000000000000000000000000000000000025
:102BB0000000000000000000000000000000000015
:102BC0000000000000000000000000000000000005
:102BD000000000000000000000000000000000FFF6
:102BE000FFFFFFFFFFFFFFFFFFFFFFFFFFFFFFFFF5
:102BF000FFFFFFFFFFFFFFFFFFFFFFFFFFFFFFFFE5
:102C0000FFFFFFFFFFFFFFFFFFFFFFFFFF0011249C
:102C10001FBECFEFD4E0DEBFCDBF14BE0FB6F89419
:102C2000A895809160008861809360001092600098
:102C30000FBE12E0A0E0B1E0ECE3F6E302C00590C5
:102C40000D92A232B107D9F722E0A2E2B2E001C0B0
:102C50001D92A634B207E1F70E94EB180C941C1BDE
:102C60000C94000080E00895F894809140029091C7
:102C700041027894089540917501509176019A012E
:102C80003695279536952795BA0193E07695679501
:102C90009A95E1F726272427BA0135E076956795BE
:102CA0003A95E1F726272170922F979599279795C6
:102CB00080E056954795842B952B909376018093D1
:102CC000750108951895F19B07C0F09903C05B9AB0
:102CD0002B9A02C05B982B980F921F920FB60F92FF
:102CE00011240F931F932F933F934F935F936F93F1
:102CF0007F938F939F93EF93FF93809140029091E6
:102D0000410201969093410280934002E091390282
:102D1000F0913A020995811108C0239853982B9A93
:102D20005B9A8FEF88BD87BD18C0539A239A809114
:102D30003F0287FF07C0F09B02C0F19A01C0F198E3
:102D4000F09806C0F09902C0F19A01C0F198F09A8B
:102D500080913F02880F88BD87BDFF91EF919F91C1
:102D60008F917F916F915F914F913F912F911F9123
:102D70000F910F900FBE1F900F901895E0912502B4
:102D8000F0912602F695E795E351FD4E84918093EC
:102D90004302E0912302F0912402F695E795E4596D
:102DA000FF4F949190933802209125023091260292
:102DB0002034324391F420912302309124022230B6
:102DC000354259F481E08093220282E396E19093A8
:102DD0003A028093390280E0089510922202109204
:102DE0003F0220912502309126022034324300F523
:102DF00020912502309126022F5F3F4F309326020B
:102E00002093250220912302309124022230354262
:102E1000D8F540912302509124022091250230914F
:102E200026022417350780F5E82FE595E0933F0249
:102E300020912302309124022230354218F520914E
:102E40002302309124022F5F3F4F309324022093BE
:102E50002302209125023091260280913F02E92F22
:102E60002034324360F44091230250912402209197
:102E70002502309126024217530708F4E595E80F22
:102E8000E0933F0281E0089580933F02D1CFCF933A
:102E9000DF93809127029091280201969093280257
:102EA0008093270280913702882369F1809127025D
:102EB000909128026091440240914402C0912702FF
:102EC000D091280220913702E091370270E0660F1E
:102ED000771F0E94EC1A31E04817190608F030E01D
:102EE000622F70E0660F771FCE010E94EC1AAC01D2
:102EF00091E0E417150608F090E0392730933F027F
:102F0000DF91CF91089580912702909128026091DE
:102F100044024091440270E0660F771F0E94EC1A51
:102F20009C0191E04217130608F090E090933F0255
:102F3000E7CF8091440281110CC082E396E1909327
:102F40003A0280933902109238021092430280E0D4
:102F5000089520914302022E000C330B8091300221
:102F6000882309F450C080914402280F311D8091BC
:102F70003B02821713066CF41092300280913B02E0
:102F800090913B02291B310990E0AC01421B530B8D
:102F90009A01622F2093430280913702882309F41B
:102FA00071C020913802022E000C330B80912F0249
:102FB000882309F448C080913702280F311D809181
:102FC0003402821713066CF410922F0240913402DF
:102FD00080913402281B310950E0CA01821B930BF7
:102FE0009C012093380230913E0240913E0223031F
:102FF000900111246403A0011124852F830F809375
:103000003F0281E0089580914402281B310980919C
:103010003B0290E0919581959109281739070CF0B2
:10302000B8CF81E08093300240913B0280913B0217
:10303000820F932F911D242F30E031952195310976
:10304000281B390BA6CF80913702281B31098091AC
:10305000340290E0919581959109281739070CF673
:1030600081E080932F029091340240913402420F0C
:10307000532F511D292F30E0319521953109241B03
:10308000350BAFCF30913E022303900111243093D2
:103090003F0210923802B5CF80912E028F5F80934D
:1030A0002E029091440289130CC00E943B1620917D
:1030B0003E02382F3203C001112490933F02109238
:1030C0002E0281E008950F931F93CF9380912D02DC
:1030D0008F5F80932D02C0912C02CF5FC0932C0292
:1030E00090914402891316C000912A0210912B027C
:1030F0000E943B1620913E02382F3203C00111245A
:1031000090933F0210922D020F5F1F4F10932B02DE
:1031100000932A02809131029091320220912A027A
:1031200030912B028217930758F480913502C8130F
:1031300007C010922C0280913E02815080933E0283
:1031400080913E0281110CC010922B0210922A0233
:1031500010922D0210922C02CF911F910F91089581
:1031600081E0FACF809129028F5F809329029091AC
:10317000440289130CC00E943B1620913E02382F56
:103180003203C001112490933F021092290281E082
:10319000089526B122952695277031E02327822FA6
:1031A000817090E04A9B82604C9B8460619B886048
:1031B0004F9B8061189B8062199B80641C9B806878
:1031C000629B9160639B9260329B9460339B98609A
:1031D000349B90610895F8941092330290E080E05F
:1031E0000E94061B8093360280E88093610091E084
:1031F000909361008AE68AB988E084B9109244020B
:103200008BB18A668BB922E336E130933A02209380
:10321000390283EA84BD95BD80916E008160809300
:103220006E008FEF88BD87BD85B1836385B988B196
:103230008F6388B98BB185698BB98EB18E608EB979
:103240007894809136028E3048F083E08093360285
:103250006091360290E080E00E940E1B812C712C60
:10326000D0E0C0E04EE0642E07E417E153E6C52E3F
:1032700058E1D52E64E6962E7CE4472E78E1572E51
:10328000E8E13E2EF2E3EF2EF6E1FF2EA9E9AA2EA9
:10329000A7E1BA2E83B185FB882780F921E0822738
:1032A0008093330280913602662D0E94E01A90933B
:1032B00036020E94C918BC0141E050E080E090E075
:1032C00020E08F5FFB01E423F523EF2B19F022238D
:1032D00041F1982F440F551F803199F7211103C0F8
:1032E000992309F46AC1A895809133028111722E45
:1032F0008820C9F080913302811115C0A895F09201
:103300003A02E09239021092440270923602599ABF
:103310006091360290E080E00E940E1B80903302A4
:10332000B9CF282FD7CF21110DC080913602873019
:1033300049F080913602893029F0809136028A3036
:1033400009F034C1E0913602EE3040F7F0E0E55587
:10335000F64E0C94001BB919B919B919B919B91954
:10336000B919FF19101A431A501A731A8F1AA51A8D
:10337000BB1A8FE780933E02809345022150330BA6
:10338000809136024CE0F901E453FE4F849FE00D3A
:10339000F11D1124808180934402809136022958C6
:1033A0003E4FF901849FE00DF11D1124808180932F
:1033B0003B02992309F1E92FE150FF0BCF01209146
:1033C0003602E453FE4F249FE00DF11D11242081AD
:1033D000209337022091360289589E4FFC01249F8A
:1033E000E00DF11D1124808180933402B0923A02E5
:1033F000A0923902599892CF10923702F7CF8AE003
:10340000289F802D112480933E02862D821B80935D
:10341000440222EB38E130933A0220933902EACF9A
:103420008FEF820F863020F08FEF890F863000F506
:10343000C11107C01092260210922502109222029A
:10344000C1E0273010F49730A8F0D11107C01092D6
:1034500024021092230210922202D1E080912202D3
:10346000882351F0F0923A02E0923902599A56CFED
:10347000C0E0E7CFD0E0F2CF8EEB96E190933A0236
:1034800080933902B7CF90923E02222321F0832D00
:10349000821B8093440250923A0240923902AACF92
:1034A0002223D9F190923E022150330BF901E859C1
:1034B000FE4F808180934402F901EE0FFF1FE25B13
:1034C000FE4F8081918190933202809331022F5B75
:1034D0003E4FF9018081809335025998D0923A028B
:1034E000C09239021BCF2223C1F090923E0221509C
:1034F000330BF901EC5CFE4F808180934402F901AB
:10350000EE0FFF1FE65EFE4F8081918190933202A5
:1035100080933102235F3E4FDCCF599ADFCF109367
:103520003A0200933902E22FF0E0E150FF4F808130
:103530008093440259989923B1F1E92FF0E0E150CA
:10354000FF4F808180933702E9CE10933A020093B7
:1035500039025998E22FF0E0E150FF4F8081880F47
:10356000809344029923F9F0E92FF0E0E150FF4FF6
:103570008081880FE7CF10933A020093390259985F
:10358000E22FF0E0E150FF4F8081880F880F809399
:103590004402992341F0E92FF0E0E150FF4F808190
:1035A000880F880FCFCF10923702B8CEF0923A0230
:1035B000E09239021092440259CF81109BCEB5CED1
:1035C000991B79E004C0991F961708F0961B881F75
:1035D0007A95C9F780950895AA1BBB1B51E107C0D6
:1035E000AA1FBB1FA617B70710F0A61BB70B881F93
:1035F000991F5A95A9F780959095BC01CD01089522
:10360000EE0FFF1F0590F491E02D0994F999FECF7C
:1036100092BD81BDF89A992780B50895262FF99912
:10362000FECF1FBA92BD81BD20BD0FB6F894FA9AA5
:0C363000F99A0FBE01960895F894FFCFA0
:10363C0017161514131211100F0E0D0C0B05400458
:10364C000A0A101010181818408080000002080098
:10365C0080008000800080008000FF00FF00FF00E1
:10366C00000200040E0D100B0A09080706050402DF
:10367C000217161514131211100F0E0D0C0B180047
:10368C00180018001800180018001800180018006E
:10369C001800180018001800171615141312111022
:1036AC000F0E0D0C0BE1AC77716A645F597F507192
:1036BC0047435F7771507E47707F505E47435F771B
:1036CC007F5D71537B5F465E474357707F71714DD1
:1036DC007B5F417F6F5857704A7B71507B5F7F5780
:1036EC005B5857544A8071507B8047575B428080AF
:1036FC0080808080808080808080808002020202B6
:10370C000202030203020203040403050305060478
:10371C000504040608090709070B09070A08080B22
:10372C000F1211120D16120D1B1915161E1525242C
:10373C001B2C243325292A2C2D2A4D483658613927
:10374C004A523F7E7E7E7E7E7E7E7E7E7E7E7E7E2C
:02375C007E00ED
:00000001FF
