:100000000C9436000C9453000C9453000C94530041
:100010000C9453000C9453000C9453000C94530014
:100020000C9453000C9453000C9453000C94530004
:100030000C9453000C9453000C946E000C945300D9
:100040000C946F000C9453000C9453000C945300C8
:100050000C9453000C9453000C9453000C945300D4
:100060000C9453000C9453000C94530011241FBEA5
:10007000CFEFD4E0DEBFCDBF11E0A0E0B1E0E6E01D
:10008000F4E002C005900D92AA37B107D9F721E03C
:10009000AAE7B1E001C01D92A538B207E1F70E94BE
:1000A00091010C9401020C94000080E0089590915D
:1000B0000001292F22952F70892F86958695869588
:1000C0008227292F269526952927822787958827F5
:1000D00087959695892B8093000108951895F19B3B
:1000E00007C0F09903C05B9A2B9A02C05B982B98CB
:1000F0000F921F920FB60F9211242F933F934F939D
:100100005F936F937F938F939F93EF93FF93E09110
:100110008001F09181010995811108C023985398BD
:100120002B9A5B9A8FEF88BD87BD18C0539A239A8C
:100130008091830187FF07C0F09B02C0F19A01C044
:10014000F198F09806C0F09902C0F19A01C0F198B8
:10015000F09A80918301880F88BD87BDFF91EF9150
:100160009F918F917F916F915F914F913F912F91CF
:100170000F900FBE1F900F90189585E590E090931B
:1001800081018093800108958091840181110BC0C9
:1001900025E530E0309381012093800110927D01AC
:1001A00010927C01089580917C01082E000C990B1F
:1001B00020917B012223C1F020918401820F911DA7
:1001C0002091820130E02817390764F510927B01F5
:1001D000409182012091820130E0B901681B790BC6
:1001E000CB01840F911D1EC020918401821B9109B7
:1001F0002091820130E031952195310982179307D2
:100200008CF421E020937B012091820130918201C6
:10021000AC01430F511D30E088279927821B930BB7
:10022000841B950BE82F80937C0120917F01222372
:1002300009F44FC020917D01022E000C330B8091F8
:100240007A018823C1F080917F01280F311D4091F0
:100250007E0150E04217530764F510927A018091B5
:100260007E0140917E0150E0BA01621B730B9B013D
:10027000280F311D1EC080917F01281B310940913C
:100280007E0150E0519541955109241735078CF4B2
:1002900081E080937A0140917E0180917E01B901D5
:1002A000680F711D50E022273327241B350B261BB6
:1002B000370B20937D018E2FEE0F990B820F911D2E
:1002C00027FD9A9597FD01969595879580938301D3
:1002D00004C08093830110927D0181E0089526B1CE
:1002E00022952695277031E02327822F817090E098
:1002F0004A9B82604C9B8460619B88604F9B8061BD
:10030000189B8062199B80641C9B8068629B916033
:10031000639B9260329B9460339B9860349B9061A6
:10032000089580E88093610081E0809361009AE6FF
:100330009AB998E094B925E530E030938101209393
:10034000800193EA94BD85BD80916E0081608093A9
:100350006E008FEF88BD87BD85B1836385B988B195
:100360008F6388B98BB185698BB98EB18E608EB978
:100370007894C4ECD0E00E946F01BC0131E041E010
:1003800050E020E090E0FA01E623F723EF2B29F07C
:10039000992311F0232F01C0932F440F551F3F5F66
:1003A000313189F7992349F1892F90E04796FC0173
:1003B000E35CFE4F308130938401FC01EF5FFE4F20
:1003C000808180938201222381F0822F90E04796E2
:1003D000FC01E35CFE4F208120937F01FC01EF5F75
:1003E000FE4F808180937E0102C010927F01D093E6
:1003F0008101C09380015998BECF10928401599A0F
:06040000BACFF894FFCF13
:10040600E777716A645F5954504B47434077716A86
:10041600645F5954507147435F7771504B47706A18
:10042600505E47435F77715D71537B5F465E47431E
:1004360057707871714D7B5F41506F5857010101BC
:10044600010101010101010101020202020202028F
:10045600020302020304040303030505040504045E
:100466000608080709070B09070A08080B0F1111E8
:0A047600120D16120D1119151600D3
:00000001FF
