:100000000C9436000C9453000C9453000C94530041
:100010000C9453000C9453000C9453000C94530014
:100020000C9453000C9453000C9453000C94530004
:100030000C9453000C9453000C9485000C945300C2
:100040000C9486000C9453000C9453000C945300B1
:100050000C9453000C9453000C9453000C945300D4
:100060000C9453000C9453000C94530011241FBEA5
:10007000CFEFD4E0DEBFCDBF11E0A0E0B1E0E0E41F
:10008000F5E002C005900D92AC3AB107D9F721E036
:10009000ACEAB1E001C01D92A43CB207E1F70E94B6
:1000A000D4010C949E020C94000080E00895F89412
:1000B0008091BE019091BF01789408954091000114
:1000C000509101019A013695279536952795BA01E9
:1000D00093E0769567959A95E1F726272427BA014C
:1000E00035E0769567953A95E1F726272170922FAE
:1000F00097959927979580E056954795842B952B52
:10010000909301018093000108951895F19B07C019
:10011000F09903C05B9A2B9A02C05B982B980F92C0
:100120001F920FB60F9211240F931F932F933F939B
:100130004F935F936F937F938F939F93EF93FF936F
:100140008091BE019091BF0101969093BF01809371
:10015000BE01E091B501F091B6010995811108C089
:10016000239853982B9A5B9A8FEF88BD87BD18C050
:10017000539A239A8091BD0187FF07C0F09B02C06C
:10018000F19A01C0F198F09806C0F09902C0F19A76
:1001900001C0F198F09A8091BD01880F88BD87BD9C
:1001A000FF91EF919F918F917F916F915F914F910F
:1001B0003F912F911F910F910F900FBE1F900F90A5
:1001C000189585E590E09093B6018093B501089568
:1001D0008091C20181110CC085E590E09093B60139
:1001E0008093B5011092B0011092AF0180E00895A4
:1001F0002091AF01022E000C330B8091AE018823B9
:1002000009F450C08091C201280F311D8091B901BD
:10021000821713066CF41092AE018091B90190918F
:10022000B901291B310990E0AC01421B530B9A0123
:10023000622F2093AF018091B401882309F471C02B
:100240002091B001022E000C330B8091AD01882368
:1002500009F448C08091B401280F311D8091B2018A
:10026000821713066CF41092AD014091B201809197
:10027000B201281B310950E0CA01821B930B9C017B
:100280002093B0013091BC014091BC012303900147
:1002900011246403A0011124852F830F8093BD01D5
:1002A00081E008958091C201281B31098091B90134
:1002B00090E0919581959109281739070CF0B8CFF6
:1002C00081E08093AE014091B9018091B901820F24
:1002D000932F911D242F30E0319521953109281B52
:1002E000390BA6CF8091B401281B31098091B2014E
:1002F00090E0919581959109281739070CF681E0D6
:100300008093AD019091B2014091B201420F532F01
:10031000511D292F30E0319521953109241B350BD2
:10032000AFCF3091BC012303900111243093BD0164
:100330001092B001B5CF8091AC018F5F8093AC017A
:100340009091C20189130CC00E945E002091BC01F3
:10035000382F3203C00111249093BD011092AC01DB
:1003600081E0089526B122952695277031E0232754
:10037000822F817090E04A9B82604C9B8460619BDD
:1003800088604F9B8061189B8062199B80641C9BD6
:100390008068629B9160639B9260329B9460339B08
:1003A0009860349B9061089580E88093610081E0BB
:1003B000809361009AE69AB998E094B925E530E017
:1003C0003093B6012093B50193EA94BD85BD809129
:1003D0006E00816080936E008FEF88BD87BD85B110
:1003E000836385B988B18F6388B98BB185698BB90F
:1003F0008EB18E608EB978941092B10183E08093B3
:10040000B301790144E6C42E5CE0D52EC8EED0E0FD
:100410006AE0B62E0BE911E0AA24A3941D9903C04B
:10042000A092B101FBCF0E94B201BC0141E050E0BB
:1004300080E020E090E08F5FFB01E423F523EF2BC9
:1004400019F09923A9F0282F440F551F803199F7EF
:100450008091B101882371F01092B101F092B60140
:10046000E092B5011092C201599A9093B301D6CF90
:10047000982FEACF992309F459C08091B3018630AF
:1004800070F0863059F69B9D802D11248093BC011D
:100490009093C2011093B6010093B50142C0C0927F
:1004A000BC01C092C301492F4150550BCA01309184
:1004B000B301FA01E95AFE4F3D9DE00DF11D1124F3
:1004C00030813093C2013091B3018E5F9E4FFC01A9
:1004D0003D9DE00DF11D112480818093B9012223FF
:1004E00011F1422F4150550BCA012091B301FA017D
:1004F000E95AFE4F2D9DE00DF11D1124208120931E
:10050000B4012091B3018E5F9E4FFC012D9DE00D43
:10051000F11D112480818093B201D093B601C09364
:10052000B50159987BCF1092B401F7CFF092B60184
:10053000E092B5011092C201599A70CFF894FFCFA2
:10054000E1AC77716A645F597F507147435F77719F
:10055000507E47707F505E47435F777F5D71537B6E
:100560005F465E474357707F71714D7B5F417F6F80
:100570005857704A7B71507B5F7F575B5857544A7E
:100580008071507B8047575B428080808080808074
:1005900080808080808080020202020202030203C7
:1005A0000202030404030503050604050404060807
:1005B000090709070B09070A08080B0F1211120D8A
:1005C00016120D1B1915161E1525241B2C24332558
:1005D000292A2C2D2A4D48365861394A523F7E7EB1
:0C05E0007E7E7E7E7E7E7E7E7E7E7E7E27
:00000001FF
