:100000000C9436000C9453000C9453000C94530041
:100010000C9453000C9453000C9453000C94530014
:100020000C9453000C9453000C9453000C94530004
:100030000C9453000C9453000C946C000C945300DB
:100040000C9471000C9453000C9453000C945300C6
:100050000C9453000C9453000C9453000C945300D4
:100060000C9453000C9453000C94530011241FBEA5
:10007000CFEFD4E0DEBFCDBF11E0A0E0B1E0E6E518
:10008000F2E002C005900D92A230B107D9F721E04D
:10009000A2E0B1E001C01D92A630B207E1F70E94D4
:1000A000D0000C9429010C94000090910001292F9C
:1000B00022952F70892F8695869586958227292FE0
:1000C00026952695292782278795882787959695AF
:1000D000892B80930001089527FC02C02B985B9820
:1000E00018951F920F920FB60F9211242F933F93E2
:1000F0004F935F936F937F938F939F93AF93BF9330
:10010000EF93FF9327FE02C02B9A5B9AE0910301C5
:10011000F09104010995882319F0239A539A05C098
:10012000239853988FEF88BD87BD822D880F88BD97
:1001300087BD7894FF91EF91BF91AF919F918F917F
:100140007F916F915F914F913F912F910F900FBED3
:100150000F901F901895822D082E000C990B30914E
:10016000020120910501332351F0820F911D853644
:100170009105A4F01092020128EC30E00BC0821B24
:1001800091098C395FEF95074CF421E0209302012F
:1001900028E33FEFA901481B590BCA01282E0895F7
:1001A00080E88093610081E0809361009AE69AB9CB
:1001B00098E094B9569893EA94BD85BD80916E00FD
:1001C000836080936E00789485B1836385B988B12C
:1001D0008F6388B98BB185698BB98EB18E608EB90A
:1001E0008BEA90E0909304018093030193B190FD1A
:1001F00002C082E001C080E091FF83E094FF84E0D0
:1002000095FF80E196B190FF85E091FF86E092FF37
:1002100081E193FF88E095FF89E094FF80E199B147
:1002200090FF8AE092FF8BE094FF8CE097FF8DE0D7
:100230009CB191FF82E192FF8EE093FF03C088237F
:1002400021F001C08FE0599801C0599A80930501AF
:06025000CDCFF894FFCFB2
:02025600E700BF
:00000001FF
