:100000000C9436000C9453000C9453000C94530041
:100010000C9453000C9453000C9453000C94530014
:100020000C9453000C9453000C9453000C94530004
:100030000C9453000C9453000C9487000C945300C0
:100040000C9488000C9453000C9453000C945300AF
:100050000C9453000C9453000C9453000C945300D4
:100060000C9453000C9453000C94530011241FBEA5
:10007000CFEFD4E0DEBFCDBF11E0A0E0B1E0E6ED10
:10008000F4E002C005900D92A239B107D9F721E042
:10009000A2E9B1E001C01D92A23AB207E1F70E94C5
:1000A000DB010C9469020C94000080E00895F89440
:1000B00080919E0190919F01789408952091000174
:1000C00030910101C9019695879596958795A9016B
:1000D00063E0569547956A95E1F74827942F922754
:1000E000A90175E0569547957A95E1F74927417042
:1000F000742F77957727779560E036952795CB0114
:10010000822B932B90930101809300010895189501
:10011000F19B07C0F09903C05B9A2B9A02C05B98D1
:100120002B980F921F920FB60F9211240F931F93CB
:100130002F933F934F935F936F937F938F939F93EF
:10014000EF93FF9380919E0190919F010196909370
:100150009F0180939E01E0919901F0919A01099588
:10016000811108C0239853982B9A5B9A8FEF88BD12
:1001700087BD18C0539A239A80919D0187FF07C0BD
:10018000F09B02C0F19A01C0F198F09806C0F09976
:1001900002C0F19A01C0F198F09A80919D01880FF8
:1001A00088BD87BDFF91EF919F918F917F916F9156
:1001B0005F914F913F912F911F910F910F900FBE23
:1001C0001F900F90189585E590E090939A01809389
:1001D000990108950F931F938091A00181110BC085
:1001E00025E530E030939A01209399011092960111
:1001F00010929501A4C020919501022E000C330BA2
:10020000809194018823C1F08091A001280F311DB5
:1002100080919B0190E08217930764F510929401FE
:1002200040919B0180919B0190E0BC01621B730B8C
:100230009B01240F311D1EC08091A001281B310994
:1002400080919B0190E0919581959109281739073C
:100250008CF481E08093940180919B0190919B01AB
:10026000290F311D90E0919581959109AC01421BB8
:10027000530B9A01622F2093950180919801882356
:1002800009F453C080919601082E000C990B20911F
:1002900093012223C9F0209198018C01020F111DB6
:1002A0004091970150E04017510774F51092930167
:1002B000409197012091970130E0C901801B910B7B
:1002C0008C01040F111D20C0209198018C01021B8C
:1002D00011092091970130E03195219531090217DC
:1002E000130794F421E0209393012091970130911A
:1002F0009701A801430F511D30E088279927821BE1
:10030000930B8C01041B150B0093960120919C010B
:1003100030919C010203C001112463039001112458
:10032000832F890F80939D0109C030919C01230385
:100330009001112430939D011092960181E01F914C
:100340000F910895809192018F5F80939201909117
:10035000A00189130CC00E945E0020919C01382FDF
:100360003203C001112490939D011092920181E00B
:10037000089526B122952695277031E02327822FF4
:10038000817090E04A9B82604C9B8460619B886096
:100390004F9B8061189B8062199B80641C9B8068C6
:1003A000629B9160639B9260329B9460339B9860E8
:1003B000349B9061089580E88093610081E0809390
:1003C00061009AE69AB998E094B925E530E0309357
:1003D0009A012093990193EA94BD85BD80916E00A6
:1003E000816080936E008FEF88BD87BD85B1836388
:1003F00085B988B18F6388B98BB185698BB98EB1A6
:100400008E608EB97894E90194E6D92E0AEE10E058
:1004100022EAE22E21E0F22E3AE0C32E1D990BC013
:10042000F0929A01E0929901C092A0010E945700B7
:1004300090939C01F3CF0E94B901BC0131E041E0EF
:1004400050E020E090E0FA01E623F723EF2B29F0BB
:10045000992311F0232F01C0932F440F551F3F5FA5
:10046000313189F7992369F1D0929C01D092A10191
:10047000892F90E08396FC01E65BFE4F308130933C
:10048000A001FC01EE5FFE4F808180939B0122233F
:1004900081F0822F90E08396FC01E65BFE4F208185
:1004A00020939801FC01EE5FFE4F808180939701BD
:1004B00002C01092980110939A01009399015998E3
:1004C000ADCFD0939A01C09399011092A001599A8F
:0604D000A5CFF894FFCF58
:1004D600E1AC77716A645F5954504B47434077717A
:1004E6006A645F5954507147435F7771504B477048
:1004F6006A505E47435F77715D71537B5F465E4727
:100506004357707871714D7B5F41506F5857704AF1
:100516007B71507B427A575B5857010101010101FB
:1005260001010101010102020202020202020302AA
:10053600020304040303030505040504040608086E
:100546000709070B09070A08080B0F1111120D16E8
:10055600120D111915161E1525241B2C19312529C6
:020566002A2C3D
:00000001FF
