:100000000C94470C0C94640C0C94640C0C94640CCD
:100010000C94640C0C94640C0C94640C0C94640CA0
:100020000C94640C0C94640C0C94640C0C94640C90
:100030000C94640C0C94640C0C94960C0C94640C4E
:100040000C94970C0C94640C0C94640C0C94640C3D
:100050000C94640C0C94640C0C94640C0C94640C60
:100060000C94640C0C94640C0C94640C0000000060
:100070000000FFFFFF00000000FF00000000000084
:100080000000000000000000000000000000000070
:100090000000FFFFFFFFFFFFFFFFFFFFFFFFFEFE70
:1000A000FEFEFEFEFEFEFEFEFEFEFEFEFEFEFEFD71
:1000B000FDFDFDFDFDFDFDFDFDFDFDFDFDFDFDFD70
:1000C000FDFDFEFEFEFEFEFEFEFEFFFFFFFFFF004B
:1000D00000000101010202020303040404050505F6
:1000E0000606070707080808080909090909080892
:1000F00008080808070606050404040303020100B3
:1001000000FFFFFFFEFDFDFCFCFBFBFBFBFAFAFA28
:10011000F9F9F9F9F9F9F9F9F9F9F9F9F9FAFAFA4C
:10012000FAFAFAFAFAFAFBFBFBFBFBFBFBFBFBFB25
:10013000FBFBFBFBFBFCFCFCFCFCFCFCFCFCFCFC04
:10014000FCFCFCFCFDFDFDFDFDFDFDFDFDFDFEFEE1
:10015000FEFEFEFEFFFFFFFF0000010101020203A1
:1001600003040405060607080809090A0B0C0C0D10
:100170000D0E0D0D0D0D0D0D0D0D0C0B0A0A0909BF
:100180000807060504030202010100FFFEFDFDFC55
:10019000FCFCFBFBFAF9F9F9F9F9F9F8F8F8F8F8C9
:1001A000F8F8F8F9F9F9F9F9F9F9F9F9F9F9FAFAC0
:1001B000FAFAFBFBFBFBFBFBFBFBFBFCFCFCFCFC8C
:1001C000FCFCFCFCFCFCFCFCFCFDFDFDFDFDFDFD68
:1001D000FDFDFDFDFDFCFCFCFDFDFDFDFDFDFDFD52
:1001E000FDFDFDFDFEFEFEFEFFFFFF000001010222
:1001F0000203030405060607070809090A0B0C0C8D
:100200000D0E0E0F0F0F0E0E0E0D0D0E0D0C0B0A18
:1002100009090808070604030201010000FFFEFDAA
:10022000FCFBFBFBFAFAF9F8F8F8F8F8F8F7F7F73F
:10023000F7F6F7F7F7F7F8F8F8F8F8F8F8F9F9F942
:10024000F9F9F9F9FAFAFAFAFBFBFAFAFBFBFBFB0C
:10025000FCFBFBFBFCFCFBFCFCFCFBFBFCFBFCFCE5
:10026000FCFCFCFCFCFCFCFCFCFCFCFCFCFCFDFDCC
:10027000FDFEFEFEFFFF0000010202020304050571
:100280000607070809090A0B0C0D0D0E0F101011B7
:100290001211100F100F0F10100F0D0C0B0A0A0A7D
:1002A000090806040302020201FFFEFDFCFBFBFA43
:1002B000FAF9F9F8F7F7F7F7F7F7F7F6F5F5F5F6CE
:1002C000F6F7F7F7F7F7F7F7F7F8F8F8F8F8F8F9B7
:1002D000F9FAFAFAFAFAFAFAFBFBFBFCFCFBFCFC73
:1002E000FCFCFCFCFCFCFCFCFCFCFCFCFCFCFCFC4E
:1002F000FCFCFCFCFCFCFCFCFCFCFCFCFCFDFDFD3B
:10030000FDFEFEFEFF0000000101020304040505DE
:1003100006070708090A0A0B0C0D0D0E0F0F101126
:1003200012121312111010101011100F0D0C0B0AD5
:100330000A090807050302010100FFFFFEFCFBFAA2
:10034000FAF9F9F8F8F7F6F6F6F6F6F6F6F5F5F541
:10035000F4F5F5F6F6F6F6F6F6F7F7F7F8F8F8F836
:10036000F8F9F9F9FAFAFAFAFBFBFBFBFCFBFBFCE8
:10037000FCFCFCFCFCFBFBFCFCFBFBFCFCFBFBFBC4
:10038000FBFBFBFCFBFBFBFBFBFBFCFCFCFDFDFDB3
:10039000FDFEFEFFFF000101010203030405050647
:1003A00006070708090A0B0B0C0D0D0E0F10101194
:1003B0001212131312111111101011100E0D0C0A3C
:1003C0000A09090806040301000000FFFEFDFBFA0C
:1003D000FAF9F9F9F8F7F7F6F5F5F5F6F6F6F5F4B2
:1003E000F4F4F5F5F5F5F6F6F6F6F6F7F7F7F8F8AE
:1003F000F8F8F8F9FAFAFBFBFBFBFBFBFCFCFCFC56
:10040000FBFBFBFBFBFBFBFBFBFBFAFAFBFBFAFA40
:10041000FAFAFAFAFAFAFAFAFAFAFBFBFCFCFDFD30
:10042000FDFEFEFFFF0000010102030404040506B7
:100430000607070809090A0B0C0C0D0E0F0F101008
:1004400011111214141311111110101111100E0C9E
:100450000B0A09090907050301000000FFFEFDFB67
:10046000FAF9F8F8F8F7F7F6F5F4F4F5F5F5F5F527
:10047000F4F3F3F4F4F5F5F6F5F5F5F5F6F7F8F829
:10048000F8F7F8F8F9FAFBFBFBFBFBFCFCFCFCFDC6
:10049000FDFCFCFCFDFDFDFCFCFCFBFBFBFCFCFB9C
:1004A000FBFBFAFAFAFBFBFAF9F9FAFAFAFBFCFBA6
:1004B000FBFCFCFCFDFEFFFFFF000000020303034A
:1004C000030405050607070809090A0B0B0C0D0EA6
:1004D0000E0F0F1111121314141312111110111207
:1004E00011100E0C0B0A0A0A09070503010000008F
:1004F000FFFDFDFBFAF9F9F8F7F7F7F6F5F4F5F576
:10050000F5F5F5F5F4F4F4F4F3F4F5F6F5F5F6F69F
:10051000F6F7F8F8F8F8F8F9F9FAFBFCFCFCFCFC43
:10052000FCFDFDFDFDFDFDFCFDFDFDFDFDFDFCFB00
:10053000FBFCFBFBFBFBFAFAFAFAFAFAFAFAFAF915
:10054000F9FAFAFAFAFBFBFBFCFDFDFDFEFEFFFFEC
:10055000FF010202030304050506070808090A0A49
:100560000B0B0D0E0E0F0F10111213141415141483
:1005700012121111121212100E0C0B0A0B0A08069D
:10058000050301FFFFFEFDFDFCFAF8F8F7F7F6F6AC
:10059000F6F5F4F3F3F3F4F4F5F4F3F3F3F3F3F41F
:1005A000F5F6F5F5F5F6F6F7F8F9F8F8F9F9F9FAD8
:1005B000FBFCFDFDFDFDFDFEFFFFFEFEFEFEFEFE63
:1005C000FFFFFEFDFEFDFCFCFCFCFBFBFBFAFAF969
:1005D000FAFAF9F9F8F8F8F9F9F8F9F9FAFAFBFB87
:1005E000FBFCFDFDFDFEFFFF00010202030304050D
:1005F00005070808090A0A0B0C0D0E0F0F1012133D
:100600001415161717161413131313141412100EAF
:100610000C0B0B0A0908060301FFFEFEFDFCFCFBA8
:10062000F8F7F7F6F5F4F4F4F2F1F1F1F2F3F4F48B
:10063000F2F2F1F1F0F1F2F3F3F4F4F4F5F7F9FA80
:10064000F9F8F7F7F6F6F7FAFCFCFDFEFF000000FC
:10065000FFFCFBF9F7F6F7F8F8F8F8F7F6F4F3F122
:10066000F0EFF0F0EFEFF1F1F1F0EFEEEDECECEC9C
:10067000ECEEF0F2F2F3F4F5F5F5F6F6F7F8FBFD33
:10068000FE0103050606080A0C0D0F1215191B1EA4
:10069000202326292D31363D423F33271A0F0701EB
:1006A000FCFAFCFAF4F0EFF0F3F3EDE9EAEFF5FF12
:1006B00009131C1D18110C0A0A0803010201FEFE91
:1006C000FBF8F4EEE6E0E0E5EEF5F9FD0202FFFDF1
:1006D000FDFE01020103070A0D0C0602FEF8F3F30A
:1006E000F6FB0003020101FFFDFBF9F8F9F9F7F948
:1006F000FCFAF7F1EAE4E2E2E4E6E9EDEFEDECEB37
:10070000EBEBECEDEDF1F5F7F8F9F8F6F5F4F5F8BB
:10071000FC00030607090B0B0E1114181B1E2227E1
:10072000292A2B2B2B2D2F313234373A3D41444986
:10073000472E0AF8F2F1F3F5F2F1F4EDE4E8EEF009
:10074000F1F3F503141A18150C04FFF4ECEFF4F1AF
:10075000EDEAE6E6E5DCD9E0E5EAF4FC020A0B05A1
:100760000301FDFCFCF9FAFDFAF4F0EBE7E7E6E73C
:10077000EDF4F8FE0303050602FF0101010100FC90
:10078000F9F3EDE8E5E2E2E4E4E7ECEFEFEFEFF0B8
:10079000F1F2F5F8F8F7F6F4EFEDECEBEAECEEF148
:1007A000F3F6F8F9FAFBFE0104070A0C0D0F10111D
:1007B000131517191B1C1F20212225282726292B3A
:1007C0002F353A3C4046432D0CF3EBEDEEEFEFF0C6
:1007D000F0EDE9E9F0F6F7F903111E221E160D04FB
:1007E000FBF4F0F0F1EFEAE8E7E5E2DFE2EAF4FC3F
:1007F000040B10110E0A0502FFFCF9F8F7F4F0EAF9
:10080000E6E4E3E5EAF0F7FD020608090908060454
:10081000040301FDFAF6F1EDE9E8E9EAEBEEF1F2A5
:10082000F3F6F7F6F6F7F7F6F5F4F2EEECECEBEBA1
:10083000EBEDEDEEF0F3F6F8F9FBFCFDFE00010246
:10084000030507090A0C0E101315181A1C1D1F2189
:1008500022252B2D2E313334373C3F413007EAE639
:10086000E7EAF0EFECF0F2EDF1FCFF00040A1725E7
:10087000251C1509FCF5EFE9EAECE8E5E7E7E6E712
:10088000E6E9F4FE050E1313110D0601FEF8F3F26E
:10089000F0EEECE9E4E3E4E6EBF3FA01060A0D0E10
:1008A0000D0A0803FEFBFAF7F3EFEAE6E4E4E6E9F3
:1008B000EBEEF3F7F8F9FCFCFAFAFBFAF7F6F5F2CF
:1008C000EFEDEDEBEAECEFF0F2F6F9FBFCFF0102E5
:1008D00004060808090B0C0D0F111213181B1D1E1E
:1008E0001F20202326292E303235383C3616EFE3E0
:1008F000E6E6ECF5F2F1F5F2F0F90101050A111F57
:10090000271D130AFBF0EDE8E7EDECE7E9EBE9EA78
:10091000EDEEF601090F1615110D05FDFAF6F1EFD2
:10092000EFEEECEBE8E6E9EBEFF700060A0D0D0C55
:100930000A0703FFFBF8F6F2EEEAE8E5E3E4E7EB8B
:10094000F0F4F7FAFDFDFDFCFBFAF9F8F6F4F2EF2E
:10095000EDECEDEEEFF1F3F6F8FAFDFF010306071B
:10096000090C0D0E0F10111416171A1D1D1F21232F
:1009700024272B2E31363A3B2A04E7E2E3E5EFF554
:10098000F2F4F7F4F6FF0203090E172424180E03FD
:10099000F3EAE7E4E6ECEAE8EDEFEDEEF1F6FF0965
:1009A0000F1619160F0800F9F5F1EEEDEDEDEDEB70
:1009B000E9EBEFF3F800070B0D0B090804FFFAF75A
:1009C000F5F3F4F2EEEAE7E6E5E6ECF1F4F5F9FC2E
:1009D000FBFAFAFAF8F8F9F8F5F3F2EFECECEFF2CB
:1009E000F5F8FBFDFE000306090C0F111314161792
:1009F000191B1D202323252727282A2C2E33372691
:100A0000FBE1E3E2E2F2F9F2F7FDF6FA0707050D82
:100A10000F1322211008FEEEE6E5E1E6EDEBE9F02A
:100A2000F3F2F4F7FC050D111618120B04FBF4F1A8
:100A3000EFECECEDEDEFEFECEEF4F8FD050B0D0B4C
:100A4000070402FEF9F7F5F2F0F0F0EEEDEDEFF14C
:100A5000F3F7FBFAF8F9F9F6F5F6F6F4F3F4F5F333
:100A6000F2F4F4F4F5F8F9F8F8F9F9F9FCFF0102F9
:100A70000507090C0E111316191C1E20222324260B
:100A80002627292B2D323828FBDDDFDEDEF1FCF3B3
:100A9000F7FFF8FA0706060F101323221106FAEAE9
:100AA000E4E2DFE6F0ECEAF2F4F2F6F9FD08101306
:100AB000181A120802F9F0EFEEECEDEEEDEFEFECA4
:100AC000EEF5FAFF060B0C0A050202FDF6F5F4F04E
:100AD000EFF1F1EEECECEFF1F3F9FDFAF8FAF9F5DC
:100AE000F4F5F5F3F3F5F6F4F4F5F5F4F5F7F8F8B5
:100AF000F9FDFEFDFF010103070B0D10131516187C
:100B00001A1C1E20222221222426292E32341EF1D4
:100B1000DCE1DEE1F8FEF2F9FEF6FB060408111056
:100B200016241E0D02F5E8E5E3E1ECF2EDECF3F23C
:100B3000F1F6FAFF0B121519180D05FFF6EFF0F09C
:100B4000EEF0EFEEF0EEEBF0F8FC02090B0A070115
:100B5000FEFEF8F4F7F6F1F1F2EFEBECEEF1F3F75D
:100B6000FBFBF8F9F8F6F4F5F6F6F5F5F6F4F2F223
:100B7000F3F4F7FAFBFCFCFDFDFEFF0205070A0D8E
:100B80000E111415171B1C1E222221222223262A95
:100B90002B2F321CF2DEE1DDE1F7FEF5FAFEF7FB6A
:100BA00004040A121117221C0C01F3E7E5E3E2EC3E
:100BB000F3EEEDF2F2F1F7FC020D141619170C0327
:100BC000FEF5EFF0F0F0F0EFEDEFEEECF1F9FE03F3
:100BD000070A0A050000FCF7F6F7F4F2F2F0EDEB75
:100BE000EBEEF2F4F7F9F9F7F7F7F7F6F6F6F7F6B2
:100BF000F6F6F4F2F3F4F6F9FBFCFCFCFDFF01035E
:100C000005080B0C0E111416181B1E1E1F21222185
:100C1000212525262B32321CF4DDDEDDE2F900F63B
:100C2000F9FCF5F904050A131317211E0DFFF3E76C
:100C3000E4E3E4EDF4F0ECF0F1F0F5FC030D16184C
:100C400019170C02FDF6F0F1F2F2F1EFECEDEDEC1C
:100C5000F0F90004070A0902FDFEFDF7F8FAF6F2C2
:100C6000F1EFEDECECF1F5F4F7FCFAF6F5F5F5F54E
:100C7000F6F8F8F5F4F4F2F2F5F8FAFAFBFDFDFCFB
:100C8000FE00010306090B0C0E101215181C1D1E88
:100C90001F212222212327292C343318EFDCDDDB0E
:100CA000E5FBFFF6F9FAF3F903050C16151A231EF6
:100CB0000CFEF1E6E4E4E6EEF4EFEBEDEEEEF5FD2E
:100CC0000510181919160B01FCF6F1F2F4F3F1EF07
:100CD000EBEAEBEBF0F9FF03090B080401FEFDFC66
:100CE000FAFAF7F3F0EFEDECEDEEEFF2F5F8F8F7D6
:100CF000F8F8F7F7F7F7F7F6F5F5F6F6F7F7F8F887
:100D0000F9FBFDFE0002040507090C0D1012151673
:100D1000191C1D1D1F1F1E212425272B2D322B06BC
:100D2000E1DDDFDDF003FAF5FBF4EFFD0406121858
:100D3000151D231503F8ECE4E6E7EAF2F4EBE8EC22
:100D4000EBEEF90109141A18171105FEFCF6F3F67B
:100D5000F6F3F0ECE8E9EAECF5FF04070A0A05FF10
:100D6000FDFEFCFBFDFDF7F2EFEBE9E9ECF1F4F63B
:100D7000F9FBF8F5F5F5F5F6F7F8F7F5F5F5F4F410
:100D8000F6F8F9FBFDFEFEFEFF00010306080A0C63
:100D90000D101215181A1A1C1F2021212224252794
:100DA0002B2E2E1CF7DDDDDFE5F800F7F6F8F1F469
:100DB00000060C1517181F1D0DFEF4EAE5E8E9ED15
:100DC000F3F0E8E7EBECF2FE060E171A17140C032B
:100DD000FEFBF6F6F8F6F1EDE9E7E8EBF0FA0307CB
:100DE0000B0C090501FEFDFDFCFDFCF6F0EDE9E74D
:100DF000E9ECF1F5F7F9FAF8F7F7F6F6F8F9FAFA97
:100E0000F7F5F3F0F0F3F6FAFCFDFCFBFBFDFF0158
:100E10000406080A0B0C0D0F11141618191A1C1CC5
:100E20001D1F20212427282B312D11ECDDDEE1EDC3
:100E3000FEFEF5F5F2EDF500081116171C20180955
:100E4000FCF2EBEAECEDF2F4ECE4E5E8EBF500099A
:100E50001218181511090300FEFBFBFBF7F0EAE678
:100E6000E5E7EAF2FC04080C0D0906060402FEF9A7
:100E7000F7F7F4F1F0EAE4E5E9ECF3F8FCFCF8F755
:100E8000F8F7F6F8F9F8F7F7F6F4F2F2F3F3F7FB00
:100E9000FDFEFEFEFEFEFF020406080A0B0C0E0F0E
:100EA00011131518191B1B1C1D1D1F212325292B70
:100EB000302C0FEBDDDEE2F0FFFDF5F2EEEBF2FEA3
:100EC000081115181D1F1709FCF3EEEDEFF1F5F3EE
:100ED000EAE3E2E5EAF40009111717140F0A050323
:100EE000010000FEF8F0E9E5E4E5E8F1FA010508A3
:100EF0000907050608090A0A03F5EBE8E7E9ECED3E
:100F0000EBEAEAEEF2F6FBFCFBFCFEFEFEFBF7F47E
:100F1000F2F2F4F5F5F5F4F3F5F8FCFF0001020246
:100F20000304050608090B0D0D0F101011131517FA
:100F3000191C1D1C1C1E202225282C2F2300E3DE3B
:100F4000E2E8F7FFF8F1F0ECEBF4020B1015191DD5
:100F50001D1405FBF5F2F1F3F6F6F1E6E0E1E5EB41
:100F6000F6020A1014130F0D0A070605050400F710
:100F7000EDE8E4E3E5EAF2F9FD0002030405070801
:100F8000090B0A06FEF4ECE9E8E8EDF0EFECEBEC17
:100F9000EEF1F8FEFF0001FFFCFBFAF8F6F5F5F5BF
:100FA000F3F3F5F4F4F6F9FBFE0103030303040580
:100FB0000709090A0B0B0C0C0E0F11121416171748
:100FC00018191C202224272A2E2D18F5E0E0E6F11E
:100FD000FEFFF4ECE9E4E7F7070E13181B1D1B10E6
:100FE00004FEFBF8FAFCFBF6EDE0DBDEE3ECF902D5
:100FF000070C0E0C0A0B0B0C0D0D0B0800F5EDE8A1
:10100000E4E3E6EBF0F5F7F7F9FBFE03090D0F114A
:101010000F0A04FFF9F1ECECECE9E9EBEBEAECEE9A
:10102000EFF2FB0203030300FAF8F8F8F8F8F8F51A
:10103000F1F1F2F2F3F7FBFDFF01020202030405F6
:1010400007090908090A0A0B0D0F111214161616C2
:1010500017191C1F222325292F301EFBE1DFE8F37F
:101060000103F6EBE6E0E1F2050D121617191A116D
:10107000070301FF000200F9EFE2D9DBE1E8F4FD2C
:101080000104050403070B0D1012110E06FBF2ED0F
:10109000E9E7EAEEF0F1F0EEEFF1F7FE050A0E11E6
:1010A000100B07050300FEFCFBF7F2ECE5E3E6E8B6
:1010B000ECF2F5F7F9FBFCFCFE0102020200FBF783
:1010C000F3F1EFEFF1F3F4F5F6F6F6F9FD000205B2
:1010D000060504040505060708090A0C0C0B0C0F8D
:1010E00011121517191B1C1D1F2225292D332E1017
:1010F000ECE0E7F1FD05FDEDE5E0DCE5FB080C11BA
:10110000121318160D070704030707FFF6EADCD8C9
:10111000DCE2EBF5F9F9FBFBFBFF060C10141513F1
:101120000F06FDF8F4F0F0F2F3F1EEEAE7E8ECF385
:10113000FC04090C0C0A080909090A0A0804FFF74B
:10114000F2EEECEDEFF2F4F6F6F4F4F7F8F8FAFD5F
:10115000FF0201FDF8F5F4F3F5F7F9F7F4F2EFEF1C
:10116000F2F5F8FAFBFCFCFBFCFDFEFF01020302BA
:101170000201010203050608090A0A0A0B0D0F11F4
:10118000131517181B1E1E1F2022262C313427066C
:10119000E8E2EBF60105F7E7DFD9D8E7FB050A0F30
:1011A0000E1013120C0A0A090C0E0A01F7E9DCDB17
:1011B000E0E6EEF4F4F2F1F1F4FC040C121616136E
:1011C0000E0702FFFBFAFAFAF6F1ECE6E4E6EBF1C1
:1011D000F9FF0304040405080A0D10100D0802FCB1
:1011E000F7F4F2F2F2F2F2F2F0EFF0F3F8FE0307A6
:1011F000090804FFFDFDFF020401FBF3ECE8E9ED43
:10120000F2F5F6F5F2F1F2F5F9FD00020200FFFC4D
:10121000FAFAFBFDFEFFFFFDFAFAFBFDFF020507F0
:10122000070606070A0D0F101112121313151618D0
:101230001A1B1B1C1E202326292C2912F3E6EDF96C
:101240000207FEEDE2DCDAE3F704070A08060A0DFE
:101250000B090C0C0D100D04FBF0E5E2E6EAEFF4CF
:10126000F3ECEAEBEEF5FF060C100F0C0A0806058E
:1012700005040302FDF6F0EBE8E9ECF0F6F9F8F806
:10128000F9FAFD02070C0F100D0A06030000FFFE1D
:10129000FDFAF6F3F0EEEFF1F5F9FCFEFEFF0002C9
:1012A0000303030507070602FCF8F7F6F5F6F7F661
:1012B000F2F0EEEDF0F4F8FAFBFBFAF9FAFCFDFEC1
:1012C000FFFEFCFBFBFAF8F7F8F9FAFBFBFAFAFA77
:1012D000FBFE0002040405060607090B0C0D0D0CAD
:1012E0000B0B0C0D0E0F10101112131517191D1FDB
:1012F000212325272A2B210AF3EDF7010602F4E327
:10130000DAD6DBE8F7000100FEFE04090B0D10122F
:1013100013120C04FCF4EEEDEFF1F3F1E9E3E1E478
:10132000EAF3FC010506050405070B0E0E0D0B077D
:1013300000FBF6F3F1F1F2F2F2F0EEEDEEF1F7FD73
:1013400002060707070707080A0B0A080500FBF74C
:10135000F5F4F4F4F4F4F3F2F3F3F5F8FD00030418
:1013600004040404050605040301FEFCF9F7F6F67F
:10137000F5F5F5F3F1F0F1F3F6F8FAFAFAFBFAFB0A
:10138000FCFEFFFFFEFCFAFAF9F9FAFAFAFAFAFBA8
:10139000FBFCFDFF01030506070708090B0C0D0EFA
:1013A0000E0E0E0D0D0E10111314141517191C1E10
:1013B0002124272928251B07F8F7FF060801F1E259
:1013C000DAD9DFEBF6FBFBF8F4F6FD04080D10119B
:1013D00012110B0500FBF9F9F9F9F7F1E9E3E2E481
:1013E000EBF2F7F9F9F9F8FBFF040A0E0F0E0C09FE
:1013F000050301FFFFFFFDFAF6F1EEEDEDF0F4F766
:10140000F9FAF9F9FAFD0105080A090705040201CC
:10141000000000FEFBF8F5F2F2F2F4F6F7F7F8F848
:10142000F9FAFCFF020405050403030303030301A7
:10143000FFFDF9F5F3F3F3F4F5F3F0EFF0F1F4F861
:10144000FAFBFCFBFBFCFEFF00010100FEFDFDFDC5
:10145000FDFEFFFF00000000010305080A0A0B0B58
:101460000B0C0E1012131415151517191A1C1E202B
:1014700022242628262011FFF8FD080B07F9E7DCB7
:10148000DADEE7F2F8F7F3EEECF3FC03090D0E0FEA
:10149000100D08060504040402FFFAF1EAE7E7EB81
:1014A000F1F3F2EFEDECEFF3F9000607070706059D
:1014B00007090A0B0B090500FBF9F8F7F7F7F6F433
:1014C000F2EFEEEFF2F5F9FCFDFDFDFDFE01040685
:1014D00008080604020100000000FEFCF9F7F5F51B
:1014E000F5F6F8F9F9F9F9F9FAFCFEFFFFFFFFFF4D
:1014F000FFFFFEFDFDFDFCFBF9F7F6F6F7F8F7F64A
:10150000F6F6F7F8F9FAFBFCFCFDFEFF000102031A
:101510000304050505060607070808080808090A60
:101520000A0B0C0C0D0E0F1112141517181A1D1F93
:1015300021242727231A0C03030A0F0D03F3E6E0E7
:10154000E1E6EDF2F1EDE7E3E5ECF5FD010304057D
:10155000050506080B0E0F0D0A0600FCF9F8F9FB4D
:10156000F9F5F0EBE8E8ECEFF3F5F5F5F4F4F7FC5A
:10157000010508090807070607090A0A080501FD09
:10158000FBF9F9F8F8F7F5F2F0EFF0F2F4F6F8F904
:10159000F9F9FAFCFE010406060504040404050535
:1015A000040200FEFBF9F9F9FAF9F7F5F2F0F0F2AE
:1015B000F5F8F9F7F5F4F6F8FCFFFFFFFDFCFCFD8C
:1015C000FF000100FFFDFDFDFDFEFFFFFFFF00FF2F
:1015D00000010305060708080A0B0C0D0F10111275
:1015E0001212141617181A1B1C1E1F212324201553
:1015F0000B080B11140E01F4EDEAECF1F4F4F0E831
:10160000E1DFE4EBF3F7F7F5F4F6F8FC0005090B7E
:101610000A08060607080909080703FEF9F8F8F999
:10162000F9F8F5F1EEEDECEEF1F4F6F5F3F2F3F690
:10163000FBFE010203020102030608090806040278
:101640000101010101FFFDFAF7F6F7F7F8F8F7F6E7
:10165000F5F4F5F6F8FAFBFBFBFBFCFDFF000202DC
:101660000200FEFEFEFF0000FEFAF8F7F7F8F9F9B7
:10167000F8F6F4F3F5F7F8FAFBFAF9F9FAFCFF01DA
:101680000101020202040607080908080809090BFB
:101690000B0B0B0B0B0B0B0C0D0E0F0F1010121373
:1016A0001416181A1C1E1B140E0D121619160B01F7
:1016B000FCFAFBFF02FFF8F1E9E5E8EFF3F4F1EBE8
:1016C000E7E6E9EEF4F8FAF8F6F4F5FA00040606AF
:1016D0000303030305080A0B0906020001020202C4
:1016E00001FEFBF8F6F6F7F8F9F7F5F2F1F1F3F58C
:1016F000F6F7F7F7F5F5F7FAFCFEFFFEFEFDFE0044
:101700000203040403010102030404030200FFFFB7
:10171000FFFF00FFFEFCFBFAFAFBFCFBFBFAFAF909
:10172000F9F9FBFBFBFBFBFAFAFBFCFDFDFDFEFD03
:10173000FDFDFF00000000000000010102020202A6
:101740000203030404050505050505060707070749
:10175000070708080909090909090A0B0B0C0C0CF1
:101760000D0D0C0C0C0D0D0C0B0A090807060504D9
:10177000030100FEFCFBFBFAF9F8F7F6F5F5F5F5C9
:10178000F5F5F4F4F4F4F5F5F6F6F7F7F7F8F9F9FA
:10179000FAFBFCFCFCFDFDFEFFFFFFFF000000006C
:1017A000000101010100000000000000FFFFFFFE3A
:1017B000FEFEFEFEFDFDFDFDFDFDFDFDFDFCFCFD57
:1017C000FDFDFDFDFDFDFDFEFEFEFEFEFEFEFEFF3F
:1017D000FFFFFFFFFFFFFFFFFF0000000000000012
:1017E00000000000000000000000000000000000F9
:1017F00000000000010101010001010101010101DE
:1018000001010101010101010202020202020202C0
:10181000020202030303030303030303030303039B
:101820000303030303030202020202020101010097
:10183000000000FFFFFEFEFEFEFEFDFDFDFCFCFCC9
:10184000FCFCFCFCFBFBFBFBFBFBFBFBFBFCFBFCE2
:10185000FCFCFCFCFDFDFDFDFDFDFDFEFEFEFEFEB7
:10186000FFFFFFFFFFFFFFFF000000000000000080
:101870000000000000000000000000000000000068
:101880000000FFFFFFFFFFFFFFFFFFFEFE00112430
:101890001FBECFEFD4E0DEBFCDBF11E0A0E0B1E0CE
:1018A000ECEDFEE102C005900D92AC3AB107D9F71C
:1018B00021E0ACEAB1E001C01D92AA3CB207E1F719
:1018C0000E944C0E0C946C0F0C94000080E0089564
:1018D000F8948091C5019091C60178940895409143
:1018E0000001509101019A0136952795369527956B
:1018F000BA0193E0769567959A95E1F72627242714
:10190000BA0135E0769567953A95E1F7262721707B
:10191000922F97959927979580E056954795842B18
:10192000952B909301018093000108951895F19BE8
:1019300007C0F09903C05B9A2B9A02C05B982B9862
:101940000F921F920FB60F9211240F931F932F9394
:101950003F934F935F936F937F938F939F93EF93F7
:10196000FF938091C5019091C60101969093C601A5
:101970008093C501E091BE01F091BF0109958111ED
:1019800008C0239853982B9A5B9A8FEF88BD87BD28
:1019900018C0539A239A8091C40187FF07C0F09B17
:1019A00002C0F19A01C0F198F09806C0F09902C007
:1019B000F19A01C0F198F09A8091C401880F88BD16
:1019C00087BDFF91EF919F918F917F916F915F9173
:1019D0004F913F912F911F910F910F900FBE1F902C
:1019E0000F9018958091AC019091AD01FC01E459E4
:1019F000FF4FE491E093C4018132984151F486E6AF
:101A00009CE09093BF018093BE011092AD011092B3
:101A1000AC018091AC019091AD0101969093AD0124
:101A20008093AC0181E008958091C80181110CC0C0
:101A300086E69CE09093BF018093BE011092B601B0
:101A40001092B50180E008952091B501022E000C9E
:101A5000330B8091B401882309F452C08091C801EE
:101A6000280F311D8091C00190E0821793076CF41C
:101A70001092B4018091C0019091C001291B3109DD
:101A800090E0AC01421B530B9A01622F2093B501E9
:101A90008091BD01882309F46EC02091B601022E09
:101AA000000C330B8091B301882309F445C0809169
:101AB000BD01280F311D8091BA0190E08217930774
:101AC0006CF41092B3014091BA018091BA01281BC5
:101AD000310950E0CA01821B930B9C012093B6018F
:101AE0003091C3014091C301230390011124640389
:101AF000A0011124852F830F8093C40181E00895F4
:101B00008091C801281B31098091C00190E0919516
:101B100081959109281739070CF0B7CF81E08093A0
:101B2000B4018091C0019091C001290F311D90E056
:101B3000919581959109A5CF8091BD01281B31090F
:101B40008091BA0190E09195819591092817390704
:101B50002CF681E08093B3018091BA019091BA0193
:101B6000290F311D90E0919581959109AC01421B9F
:101B7000530B9A01B3CF3091C30123039001112479
:101B80003093C4011092B601B9CF8091B2018F5F3A
:101B90008093B2019091C80189130CC00E946F0C10
:101BA0002091C301382F3203C00111249093C40146
:101BB0001092B20181E008958091B1018F5F80930E
:101BC000B1019091C801891321C00E946F0C20912E
:101BD000C301382F3203C00111249093C401109225
:101BE000B1018091AF019091B00101969093B00145
:101BF0008093AF012091B7013091B80128173907C0
:101C000028F48091C30181508093C3018091C30166
:101C1000811107C01092B0011092AF011092B10172
:101C2000089581E008958091AE018F5F8093AE01A9
:101C30009091C80189130CC00E946F0C2091C301C0
:101C4000382F3203C00111249093C4011092AE01C9
:101C500081E0089526B122952695277031E023274B
:101C6000822F817090E04A9B82604C9B8460619BD4
:101C700088604F9B8061189B8062199B80641C9BCD
:101C80008068629B9160639B9260329B9460339BFF
:101C90009860349B9061089580E88093610081E0B2
:101CA000809361009AE69AB998E094B926E63CE000
:101CB0003093BF012093BE0193EA94BD85BD80910E
:101CC0006E00816080936E008FEF88BD87BD85B107
:101CD000836385B988B18F6388B98BB185698BB906
:101CE0008EB18E608EB978941092B90183E08093A2
:101CF000BC015AE0852EC4E66CE0962E74E1472EB6
:101D00007DE0572EE5EC6E2EEDE07E2ED8E102EF61
:101D10001CE0FCEDEF2EFDE0FF2EA8E1CA2ED12C39
:101D200059011D9904C081E08093B901FACF0E9446
:101D30002A0EE1E021E030E060E070E0AC014223F7
:101D40005323452B19F07723B1F06E2F220F331F49
:101D5000EF5FE13199F78091B901882371F010921A
:101D6000B901B092BF01A092BE011092C801599A68
:101D70007093BC01D6CF7E2FE9CF711105C0809141
:101D8000BC01893009F0A0C08091BC01863009F403
:101D90005DC0B8F0883009F46CC008F465C08930C3
:101DA00009F0BFCF662309F47AC08D2F861B80937C
:101DB000BD018D2F871B8093C801711177C0599A7F
:101DC0007EC0C093C301C093C901872F90E00197E3
:101DD0002091BC01FC01E95AFE4F299DE00DF11D47
:101DE000112420812093C8012091BC018E5F9E4F59
:101DF000FC01299DE00DF11D112480818093C0011B
:101E0000662309F170E0615071098091BC01FB010A
:101E1000E95AFE4F899DE00DF11D112480818093C8
:101E2000BD018091BC016E5F7E4FFB01899DE00D7D
:101E3000F11D112480818093BA015092BF0140921C
:101E4000BE0159986ECF1092BD01F7CF789D802DBD
:101E500011248093C3017093C80183E19EE09093A5
:101E6000BF018093BE01EDCF1093BF010093BE016F
:101E70005998C093C301C093C901662349F08D2FBF
:101E8000861B8093BD018D2F871B8093C80102C0E4
:101E90007111F9CF7092BF016092BE01D2CF77234A
:101EA00009F48DCF8D2F871B8093C801C093C30188
:101EB000C093C901D092B801C092B7015998F0926D
:101EC000BF01E092BE012DCFB092BF01A092BE0132
:0C1ED0001092C801599A25CFF894FFCF5A
:101EDC00E1AC77716A645F597F507147435F7771EA
:101EEC00507E47707F505E47435F777F5D71537BB9
:101EFC005F465E474357707F71714D7B5F417F6FCB
:101F0C005857704A7B71507B5F7F575B5857544AC8
:101F1C008071507B8047575B4280808080808080BE
:101F2C008080808080808002020202020203020311
:101F3C000202030404030503050604050404060851
:101F4C00090709070B09070A08080B0F1211120DD4
:101F5C0016120D1B1915161E1525241B2C243325A2
:101F6C00292A2C2D2A4D48365861394A523F7E7EFB
:0C1F7C007E7E7E7E7E7E7E7E7E7E7E7E71
:00000001FF
