:100000000C94CD0F0C94EA0F0C94EA0F0C94EA0FA9
:100010000C94EA0F0C94EA0F0C94EA0F0C94EA0F7C
:100020000C94EA0F0C94EA0F0C94EA0F0C94EA0F6C
:100030000C94EA0F0C94EA0F0C9405100C94EA0F40
:100040000C9406100C94EA0F0C94EA0F0C94EA0F2F
:100050000C94EA0F0C94EA0F0C94EA0F0C94EA0F3C
:100060000C94EA0F0C94EA0F0C94EA0F0502FFE3DC
:10007000CDF5C9D0E7E0F6F407130C181E232621AE
:1000800019F2070410150E1B0C091B17EEFE0903CD
:100090000C02E700F6050F0A19120F1B1E1B231195
:1000A000210D0EE1F7EBBFECD8E6EDEB01FEFD090B
:1000B00003120A09E9E6EFF002F8FF04F3FE0C036D
:1000C0000F08100708E2DEF5E6FAF5F8FFF1F9FA95
:1000D000F00AFD0503FCE2CFF8C6D1ECDFFCF40228
:1000E00013091A1C202A2214F507070C190B1D0EE0
:1000F000061E19F2FC07030903EBF7FA01120A1CAA
:100100000E0B231A1D2215240F0AE2F3E6BBEED6CE
:10011000E2EBE602FDFC0B01131403EBE9F2EE0245
:10012000F80105F3010C060F07100D03E4DCF2E7FC
:10013000F9F6F9FDEAFEFAEE09F9060600DECBF75C
:10014000C2D4EDDFF8F507130B1B1D212C2613F885
:1001500007070B140C180C022014ED0108080F01FE
:10016000EAF8FE040E0E180D0F2017181F131C13AB
:100170000CE0F2E2C1EEDEECE8EE02FDFC09081450
:100180001601EEE5F2F2FCFA0203F3FE0A010E0A92
:100190000F0E01E8DCF2ECF7F4FBF7F3FFF7F201E6
:1001A000FFFF0904DECFEFC0D6F0E3F6F607120B2F
:1001B000191E222F2712F7040C0F121314110221FB
:1001C0000FE909070B0A03ECF5FF020F10140D0FDE
:1001D0001C19161F16151808DCF1E4C1E8E4E6EA5C
:1001E000EE02FA000B08111305E9E2EFF4FCFFFC44
:1001F00002EFFC0C010B08110E04EADCF2F1F4FE34
:10020000F7F9F5FBFBF004FEFD060BD8D4E8C1D6E8
:10021000F0EBF2FB0213081A1D202D280CFB080935
:100220000B17171313012407ED030C0C0903EBF252
:1002300001050D1211110A23131C1B15181707DDD8
:10024000F4DCCBE8EAE0E8F000F8FF060411190757
:10025000E6E8EEF9F9FFFC05F3FB0B050D070F0DC2
:1002600004E4DBF0F3F5F9F8F9EFFEF9F401FD0031
:10027000020AD5D7E0C2DBEDECF2F9010E0B1A1C35
:10028000252F2A0AFC040C1316140F110322FFEF6A
:10029000070B0D0F04EBF2FF0E0813140F0B1F17C3
:1002A0001E1718121807DAF3D0D2E3F0E3E2F1FDDB
:1002B000FA010607131708E5E8ECFEF702FC00F068
:1002C000FB08050C070E0C08DEE3EAFAF0F6FAF775
:1002D000F3FDF8F605FC040011CFD9D3C8E6E8F425
:1002E000EEF9030D0D1F1D25292D0AFAFE0F15101D
:1002F00017110F0120F9F1080D081105E3EF090BA3
:100300000719100D0E1D1722181E121E08D9ECCF4A
:10031000DAE2ECE5E1F3F9FC03020C101608E5E380
:10032000EC02F8FFFEFBEDFB060608060D060EDFED
:10033000DDF1FAF9FDFCF4EEFFF9F803FD0300121C
:10034000D2D8D1D1E8EAF7EBFDFF0E0E1E1D242214
:100350003209F8070B1710160C0C041DF2FA0311E2
:100360000B1206DBFCFF1010191508111C1A1D18C2
:1003700020173212E0E4CACED2E9EBB9AADAFA10B9
:100380002323212A3734054D39FAECD2F8A9C9E0E4
:10039000E6DAC2D1FF03C8F2F504070E294A4A6D16
:1003A00041391E0E2D2C1FC3D69EB5E4DEE7E0C4F6
:1003B000CBCDD1DBEC0A0A08C0BBC2D7D2DCEAE65F
:1003C000D5F4182937393C29340E24455C69524844
:1003D0004948433C3E351CFCFD1BEFE6F3DFDED015
:1003E000CEC4A8C6BBAEB7B2C0B3C0ADA8B2B0C190
:1003F000C6D1CFD5DCEAE8ECFE0F262D140E2A3E3E
:100400003D3E4B503C3B505C6864645059544857E7
:10041000586355423732352A221E0DF2DAE7E6C715
:10042000CCCFC2B7AEA69B9DAA9E9B9BA3AEA5AD0B
:100430009EA7A89CA9BAC5CDDEE5E6F6FCFB08148C
:1004400019F602202F292E3920151C385053575FDA
:100450004E503B374A4F573E35323740221F2B20F4
:1004600009021308F90608F8EFE9E9E2EDF2E2E023
:10047000D5E2D8D5D0BFC5ADB9C1CBD0D6E3D8DB96
:10048000DEDEDAE0E6C3AABCD3E3D3DADED4C6D23A
:10049000EDFBFF030BFA07EDFE01FF1A050F142613
:1004A00028262E342E1D293E3739535C51493A3DBA
:1004B000454D61554F4E594B4A3E363F2F39454FBA
:1004C0004C59584C4846443E383D17FC0E1B140A04
:1004D0000805F5DCEBF8F0D0DFD5CDC9ADB9B3BC7C
:1004E000B4AAA0A5B1A9ABAFB5A99A9B9F9A9EB695
:1004F000B3A9AAA5A7ADBAC1C0C3CED9DAE2D7DCE9
:10050000CFD3F7091A1E373A3644464B4B565F4055
:1005100040596360616063564F6366665E665E5A0B
:100520004A4349445047382E28212022212103F5EF
:1005300008F6EAF0F6F3E8E5DFE2E0EBDFC4C2CB71
:10054000CBD3CABBC9ABB3C6C9C9CEDFD8DFE2E9DA
:10055000E8CFE1DBC1D1E2EBE4E6E2EFD2DDF60485
:10056000090B130E0FED02F9031107F9F508FF0847
:10057000090F15EDFE17040B1A230B0A0E1A22267B
:10058000372F2626353036191D22081F2F392629E8
:10059000353A3F43493B39492F17233738343032F6
:1005A0002F151F1823272F292B190008F605FBF2FA
:1005B000DBE0E8DEDBD4DDC8A8B8C1A8B0B0B5AADE
:1005C0009FA3A2A1AFB3ADB2BAC2C5BE9DAEADA945
:1005D000BDC4C7C3CFCDCDC7D7D8CDE2EDCDCCDF1D
:1005E000DADEE5E8F8F3E6040F1F2A2C383C28276A
:1005F000383E535B3C2D4753595662674B425F541C
:100600004C5B676D62665C615F6B6559575559520B
:10061000371E2A170D2A2F252A3A3A2C341E0D0F81
:100620002218F2F3FE09F7F7EEEFDED2E5EFF8ED70
:10063000F7EECAB9BEC3CED9D0BDB0C7CDC2C7D000
:10064000D0ADB5CCBEB9A9BBBFBDBEC4C8C5D4CAA8
:10065000CAC0C7CAC6AFA9B6A4ADC4C9C3D2DFE079
:10066000D7E0E0DAE0F4DDCCD7E6F1F3F0F5FBC754
:10067000DF00171E1F2C301F0C13162C32261721DB
:10068000353738291F28091F2F20222A3D2F302EC9
:10069000393940434C4848472F321E27251C213208
:1006A00034363F443E3C4A3A3F454D29181D2E2DD5
:1006B000221F1C11F9091829292F2A2409080B16B1
:1006C0000FFEFAF3060F1006130DF6DCF3F3E7EA5C
:1006D000F7FFEEEEE1D0D2E7E9E5E1E0DFE4CBB908
:1006E000C4BBAEBACAC4DAE0E9C5BDD0CCD0DAD951
:1006F000ADB0B3C6B8B9ADB4AB97B4C7D4D1D8D642
:10070000C7ACB8BBC8C4CEB3BBD1DFDFD9E7E6E026
:10071000D8FBCDD6ED060A08080A201C292E2F2F5B
:100720003039391B243014F0212D334754513C54B7
:10073000444E546F44303B405E4B492232252140A9
:100740004E564951542D24312B34392C1428283538
:1007500021202118FD0602E905F7120703F2FD0228
:100760000817140AE9F50BF8D9EFE9DADBE9E3F742
:10077000FD04F6F0F7F5FC05F0B4D0C9DEE0DFCDFE
:10078000CFDAB3CEE4F7F0F4FCF9D6E3D9CADBE76D
:10079000D9D0E8EAE7E1E5E0E2BCD1C1C8D3D8EBC3
:1007A000DCDACBDEDBEDEEF0D8E0E5F1D8CCE1CD64
:1007B000C3CAEBE308FAF4F905040C11231AEFFCA1
:1007C000FA110D05F408FEF0051D04161E261CF690
:1007D00016FB190D1F08111E1E241C2E2626F508B7
:1007E000FD171B263016100D1A2835312A1E282A0F
:1007F00030010F1000ED020D0B1F0F22061E1C27EB
:1008000023290E00121329FEFDFB0B02FE1A2E35C2
:10081000372B3D160D0F11201B23050BF217051268
:100820000E1A04E704E7100D1C0B00F4FA0C181C58
:10083000FAF4040008FFDDDCD9CEB8DDCFD6DBE565
:10084000DCDBE0D5EEE0EBB8BABCCCC7B4B7ACC3E8
:10085000B9B5CCDCE3F3F5F8CABEBFDFE0E8E6E00B
:10086000ECF902F209FC09D9F1E8EE0A0BFDE3F715
:10087000E6FC0D221918121B21330C000E0B01FD92
:10088000241510243B213530372A393109270E260B
:100890001A12050C12040D26292F2C2E21ECFDF620
:1008A00011181E01020A152320281205F711FB1F3B
:1008B000272F2E211B0F1E2E2C2B262228282BD62D
:1008C000EBF6EBDEE7FCF1020B0F0815FF0B06164B
:1008D000F2E5F7CDD4D7D0C4D4D5B6C6DDDEEFE58A
:1008E000E1BFB0B4B6C8C7CAB6B9BFC6C4D2C1C8E2
:1008F000B7ABBCB3D8CDDBD8D4D3DBF0DEED03F996
:10090000050B1D0FEE050AF7F20904171E302E3DE8
:10091000250C322F3D1726221D2F242123331B1790
:100920003145505554311625273338422B1925337C
:100930003B35343135111609162C2027120AFD03D8
:10094000060A16130C120C0EEFDCF5F0E5D4CDDD23
:10095000F2FA0A00070009081003E0ECDCEBE0DF24
:10096000D4E2C6A6C3DAF4FBF5F9E5C3DCD6ECEDB8
:10097000EDD6D2DFE8FAE1CAE6E7C9DFCAE7E5EC7F
:10098000EEDBD6CBD9E4EAEBECE6ECEFF1C6CDE05A
:10099000D9B4BED6E3F0F60DFA0003090E2714EE23
:1009A000ECFD0B050CFD15140C203448483D4C2182
:1009B0000D2A32340E1E1515263027292E3D2614F9
:1009C0002113382C3B312B26020B28383A3C2C21A2
:1009D000301BF90D1201E4FD0104111C230A0B1157
:1009E000060F10D6E1E3EDE7DBE1C9E3CFC7E4048E
:1009F00015E3F0FECBDCECECF00101E9E0F4FEEBFA
:100A0000F1F5FCE0EDC5BFEDE7F8E6DFD0DCF2067E
:100A10000D0A13FD010CEADCFAFABEBFE1F1FA0699
:100A20000D00FE030AF811F8DBE7D1E4DFD6D8CCDD
:100A3000E6D0D4EFFBFFF918FACEEDF7F801FD0789
:100A4000F40614F504152A220F0B04354040382A09
:100A50001E17232F474E51210D332C050B1615F46D
:100A6000FC281728393E32233F373F39FD0612153F
:100A70001F00FAF6FD0FED0019282A1725F5E1FFF2
:100A8000FCF3F901F1D8D3EDE1E7F0ECE4CDCAC70E
:100A9000ECF4F9F6C8B3CDE4F806090205021AF73A
:100AA000C6EAE7DFB0D0EBF0F4D9EBE9F001F5FAF4
:100AB0000BE9FBF7EDF9E5E9D5F1F1DE00EDFE0B11
:100AC0001F1DE0DEF505F40AF7DDEAF4F8D7E0E4EF
:100AD000F4DBD2D2E402FEF4E0DCD1F1F50216122E
:100AE0000F0C1222F2E7E3FAFAE6162027245B3E07
:100AF00030313D4250402833214A07FC030A24127A
:100B0000F8244741494E2A09262A2927433515EF5B
:100B10001B1E130D1B19FFFEF01F17300E10EEE405
:100B2000FEF91D1E1106FE0DF8BBC6DBE8BDC2D5E1
:100B3000E3DCF2FDEEEBF9F1CFF2E5F0E6EEE1E217
:100B4000E1D7F3E1D2D8FD03070A25E3A9C7EAE814
:100B5000E8FCDFE4F205FBEFEB0AF6E5CEEE031866
:100B6000FDD3EDD5FBE9FF0E1C140AFA15E9C5D932
:100B7000E3D5ACE0E3E9EEFF04F6DC05E80B00F6B4
:100B8000F5EB04E8F8DAF1FF0DCCF30A3932374916
:100B9000F523313F2730432A1A33392E232E1113E0
:100BA000FE081C243D2D2D152C1E222E4B43422EBB
:100BB0003F3EE7DB0214FCE7F818111E3727042339
:100BC000191A170905F201FBE7DBD6DBD7CFC7E31C
:100BD000F90B03FFF5BFE1EFE6E004CBC7DFE8095F
:100BE000D1E9EB07EDD2DFEAFBFFF6E9DBDBFDD76E
:100BF000DCFD0300F6FFF4CCD1F5F6D0CDEC02F22B
:100C0000161B04EFEBF80316F4FDEE02F4F4D9D949
:100C1000DBE5D4C5F3F30EFC1DCEBFFAEAD9E8FC40
:100C200000E3F114F3E4EE0A0AF4DD08FEFD0A1E07
:100C3000130F1F1934485E5344354A21F6192123F6
:100C4000FBE91518294537242942384A40252C2923
:100C500025251F081BFFFFF007352E333D30EC091B
:100C6000181005142609F60512F9E9F3FAFFD1B3B5
:100C7000DCE9F2ECECD5D7CEEAF0F70CFB01E1EFC2
:100C8000C7D0E9EAE0BFE6FFF6030EF5E6F700FBA2
:100C900005F9E8CDD6DDE8CBCDD6E3F0CBFD0913E1
:100CA0000B24F7CCFAFFFFD1ED05F6F2FF04EEF4CA
:100CB000FE04F6C8C8F2F0F3F2DDD8E5DEECF81475
:100CC0000CF5FB07FEBFE4EBEFD3CBFF0C0E242E9D
:100CD000EEF3162E353826313C313A2711121D2EEF
:100CE000160E3C47312D42FF002220262449432C7A
:100CF0002932281A2034321EEEE60D1F2E20090656
:100D0000111424223B2D222022F9C9EBEEFFBECB89
:100D1000FBEDF6FBFAE3E1F9FCF0E5E7E8E1E8EAF0
:100D2000DABAAFC1E2BFE0FB021A1F12D0DFE5EA78
:100D3000EDED12F6F2F9D5D0CCE4F1F4CEC6E5F93A
:100D40000F0CFBDBF7EBFF041336FDEDF40CD7C8FB
:100D5000E4EDF7BEE3F9F0050AFCDBEBF7F1FDF893
:100D6000E1EBE7E8ECC8D9DAEEF1D1F502241D2871
:100D70000DE006F0F00224412828303B2F2A3F36B0
:100D8000290B142230414915F30D172A224E4541F3
:100D9000424141F9FE0E230FF22C2C2D210C1C1484
:100DA000222925292018160A120DF1FAE8FCF1DE95
:100DB0001303091412D9BCDDD5EBDFFEF3D0E9E94A
:100DC000E8D6EAF8EBCAACC6EBF5FDF9E2F1EAF5D4
:100DD000FAF21D0F02F900ECB7BEB1D2C3BBEEE4CC
:100DE000020B0BFFF907F60C0EF8FCFF07F8C1C861
:100DF000E2E1FEDBE90A0E1A150AC5DCE6DBDFE3F9
:100E00000FF0F0E2EAF2D8EFE7F6DFBDE5FEFA090F
:100E100000F3F8F9161C1A1611292B3F02F5201EB3
:100E200034031C2C324E3E422B4239102522232BF8
:100E3000212D2D161E172324FF2D3442445A35D957
:100E4000F5F71A1324321B2219280807191215DD89
:100E5000CCFD011307E0EBE6E3ECE90F09FDF2F34B
:100E6000EDA2D1C4D1DAB6DFBBC8E701FEEAF6F9DC
:100E70000811F4F1E6DEF9E0D6ECE6FBCCAFCBDA14
:100E8000F7FF0FD5F2FFF6FCF610F1F3EC030608BE
:100E900013DFE5F5BECAE5EE1702F8FDF000F40732
:100EA0000DE0ECE708D8B2E3D5EBCBBED3DDF4011F
:100EB00009080212130E16FE11F1DAF1FE20221CAF
:100EC000292129263A424E3A0E31223E334025FE50
:100ED000161A2D2A2A3B3A4429DF0B11303C183BC5
:100EE0002D3623FC312B27271221F804060110F0A0
:100EF000ECFAF5091415180700050AEAD9D3DBDD69
:100F0000CDD9DFD2D3E6D7C6DFF905EEA9C2E1EA33
:100F1000F9DBF704EFE7ECFAF7F1FCF1FED2B9DE0A
:100F2000BAE1E6DBFDE8EE030A190A0602FDFBD58D
:100F3000E9F4FEFDAEB7E0F00B110E0D160C0DFA44
:100F4000E3E9DEE4D0D2E6DCDFDEE7DCD3EEFA0371
:100F500009D9E2F3FAFAF21501F808161BEFFA1FA5
:100F60002B2FEAE91B373F2B393A2C353D445540AE
:100F70004825070AF8161D25150B1317333C3F3B70
:100F80003D393D453416EE0112050E1308142911A2
:100F900000FC1C202C10E7010408F3F705F1E5EE36
:100FA000E6ECF1E9EEF6DCA6BDE3EAEDEAFBDFC430
:100FB000EAF90806F9F1FCFED1DAE7EEECD3C9D282
:100FC000E6FE08DDDCF5F8FEFEE9E8F4ECF1E9EB1D
:100FD000EEECFF01F5EAFDEDE611E9E1F9FFFC01B8
:100FE00006FEEFEAF1F0F7E8F3EDFFCBAED0E5F760
:100FF000EAEFEBEEF6FB0A1607050109FBE1FB0E33
:10100000EEE8EDF0051E37304540494644431628CA
:10101000282A202B19F70D2028160F253E3B3A1DB4
:101020001A282C2C313727292BFD091C2224222495
:10103000DDDDF71D1B17100E0F14120E210B0EF124
:10104000F6D6C6DDE0E5CAC5BFCEECECF9F6FEFD8E
:1010500000FBBAC7D8E5E6DBE7DCEAEF08F0DBD94E
:10106000F10205FACCF1D5D7D8E7F4E3F1F2F1F3C8
:101070000A06FC01EFBCC9F5030AF5D6EAF3070539
:1010800017201703FCFFD0D5DAECDDD1B9BDE5F2AE
:10109000FDF4FF0902FE03E0DFFCF4F1EAEFF5F9ED
:1010A0000A0D0FE1E31F253E1A0F242735363F3086
:1010B0003028373138393D3616F9D0FC262B372FFA
:1010C0001C29403B35373F472E291708F503130CE1
:1010D00000E7031A221E252A2F1D1B1AF8F5FBF420
:1010E000F6F1E9DFE9F2F1DDC4DBF204F6D0C7E79F
:1010F000E7E4E7E6EFCBD2ECE5F4FAF8F4F1C5B7B4
:10110000E2EEF7F8F3ECF8F604F6DFFDF1F1F8DBC8
:10111000D3D8E1F3F7D3CCE305130F0E1717EEF98D
:10112000EEE3F1F8FAF4EBE8F2F2F6E8D6DDEDEDF5
:10113000FCE8D3E3E3E9EAF9F4EEEAEEFEF6FF04B5
:10114000FB10FCBECCFC0EF909141A293335364FBE
:10115000504333340A0E2626231D10EB032A35355F
:10116000414C3C393A242128291E29201A1F292BB9
:10117000F8F40B232D3A0FFB09171A161B11140252
:101180000AFB021215FAFDDEACD2E4E8E4E9ECE772
:10119000E5F8EFFD0AFEEBF5D8B0D0CDE2ECEAB70A
:1011A000C3E40E12FF19060FF902C8E0ECD7D9C14B
:1011B000E4FA0ED4D7F0FF0FF1E7E2DF0A04150DD1
:1011C0000BFCD0CEDBF8021E1B1A0005C3A3CBE735
:1011D000EFF1F6EAE4E0F6E2F50101FD09D8C8E036
:1011E000ECF4F9ECD0E4F4130C2C160219381B1AA9
:1011F0002B1D1B072B25553F243C3D130A32431C56
:101200001B2C0E2937481409193D313B30402A3A2E
:1012100038E2FACCEB07290F1E193D4035251B2378
:101220000F10C6EFDCEF0A06DFC2135E2633FFE1C4
:10123000ECDCF4A6CADDDDD6F6E3F2CBB8DED9C924
:10124000EA08044CF140191D2EF33B2B3AF9E1D189
:10125000DBDBE5CCE9D6A7C7B8C6C6D1E5EDE1F53D
:10126000000BFCFBD8D8DEF11018212D2B122A29F7
:101270003C1A3549404C474E2B2531212E39392116
:10128000EEFADCC3B9B5BEB5BDC8C5CBCBB0C1C5E0
:10129000B0B0B9ADC0C0E1E1C1E8ADA2ACD5FF0FBF
:1012A00035323C5057555D5E60524B4055523D4182
:1012B000484D42424C50474545423D3E1912221D81
:1012C00013171F1208F1EBEBD7BCC3BAB9AD9EAC34
:1012D000A3A49CA299A0A4AEB7BCCDD1D3DEE1B9A2
:1012E000D2E4F2020510080306070A0A14181C23A8
:1012F0001E4245383F5F4431424C564D5C5E4D4383
:1013000040271E0FFEEAF0EDD0D7E9F6E6C0CCEBA1
:10131000E2EDEBE8F3FEF4FAFFF7FDF706FA020A56
:10132000FEF0F5D2ABB1B4C2BBC6C0B7B6B0AAB777
:10133000AFA9B4C4C4C1E2E6E8EEF4E8F9122F3173
:101340003D495250503918332935323B362F34320B
:10135000311F0F17171D28112B201A29333F3C3836
:101360004D494C5B5D5C535E3928293C4046463212
:10137000332C2922180CFEF3FBDCDDDECECBCAC3F6
:10138000A7ACB7BBBCC6CBD1C9C5AEADB6B4B4AEC5
:10139000BAB4B3BABDBCAB93A7AAB7B2AABAB1BC30
:1013A000B9C6C1C8CBD0E7EEFE1022261BFF152C14
:1013B000394954534F5B665E5B5D5A5251553E4FFF
:1013C00049484C4A3323242B312B3B392A221EFB1C
:1013D0000303FF01FEF80501FB09FEE5DEEBF10565
:1013E000E0EBEAE9E8DAD4C8BEB1C3B6C7D2DFD3CE
:1013F000D4B09CAAB5CECCE0DDDFE5FDEEDAE9F6AF
:10140000F607F4F407010C0E15F7F1F6110F162C80
:101410002F221E09EEFBF106F9FEFA00140D180545
:10142000EFFB101C1F090310292B2B3021262F2B1B
:101430003E4A4D49453C150C18281A2529293139B1
:101440003E27282932302D081322232C170DE4DDE6
:10145000F8040B0D15100411E4DDE5D4CCCDCCC49B
:10146000C7C5C9AFACA6AFADB7AA9DB3A9B4B2AF5B
:10147000A2A1A8A5B7B5C1B8B3D5C1A99FB4C5D11C
:10148000D4DCEEF0F4EFF8F601F40703DBFD061A06
:10149000262410F919293C565D5753645B4449468C
:1014A0003F43484A57585D535A52434A5462515831
:1014B000515D5C514D394441383E4042292E2D1238
:1014C00003F20B0E1314121916FAF302FB04F5F8CB
:1014D000DFD5E1DEE8DFD4B9B7C6CAD5EFE3CAD5B8
:1014E000DBCCB3B2BDB9BBBBB7CAD2CBC6BFABAB0B
:1014F000BEC8B1A5BDC6D1D5C5C1C2CAC2C9CFCDAE
:10150000E1D9E5D6B9AAB1C1CDE8E4EEF2F1F1E254
:10151000F2F2F6EDEDD9DEFEFB0DF9E6D7E6FE0BB5
:10152000222D39353E421B1E22261E2C302B4623EF
:1015300037333320273C3B3C294F4E55483A363809
:10154000402F44342D404252321A04112831403584
:10155000443C4C3A35383236272A12262D34221B89
:1015600004E90A0B2B232C3224320CF5E0E6EBE2E3
:10157000F3EAF5FA00F3F3E4C8DFD4EBCDD7E5E9FD
:10158000E5B4C5C0D2C5D1D2D3E4E0F5DDC9A7A08A
:10159000B1BDD4CDD2C3C4D7C8D1D1CEC1C2B4AEEF
:1015A000C8C9D0C0B7A19BA5B6CDCDDAE0ECEEC9D5
:1015B000AFC2C4C6D1D1DBE8F3FD00FCEEE0DCFB3A
:1015C0000C02202B33361D1D2E312D3A3A404D543E
:1015D0005B4810FB0F223A4A484F5353624E58570C
:1015E00051494137395A443A2D351F1D2E38534839
:1015F00057575B4C1E1C21211612121A211B2D1845
:1016000014EBE7F6F804E80F0913FEEDFCF1F2D94C
:10161000E4E8FB080B08E3CFB9C0D7E2F0F2F6F03C
:1016200002F9F0EACBD2D3DAC0DDE2ECE5D1E2B7E1
:10163000C5CDEFF3F104070BD3B2C6D9DAD0D5D7B5
:10164000EBE7F2F2E0DAB4C3C3D7C8CAE2E8EBCF03
:10165000DDDAD6CAD4E1DEF5FB07F4D7C5BED5DAAC
:10166000EFE7EF050B200F110C0D070BFDEE141427
:101670001C040AFFE9E2E418202E333D3712001063
:101680001B16141B26262E41342FFBEE0F202D1285
:101690002932402F1F2D231D1E24242A2E333417B8
:1016A000FDF5F1FDFB11121C242F3724261F1E16F9
:1016B00016FBFE0515201019F9F0F7152C2A303C01
:1016C0004033FEFC0D08FFDCE6FE0C17250E16EB82
:1016D000E6F50001ED14141706FC00E5C4DFECF696
:1016E000F9000701DAC2ACAAB6B8DFC1DBD3E1DE8C
:1016F000CECAC8D1C1C2A0C0C8D7C5C3C7A2A6B7E9
:10170000D5F2E9FAF4E3EAC3E0E5E9DAE4E7000256
:10171000141D0714D0F2F115F0DA0F1D221319135E
:10172000110F2322323441503B0D0FF709E9FC28F9
:1017300024463B5337412E3421250D082E283212E2
:101740001D03E7E60C2333252F2D3215F315110A5F
:10175000010E0B2524450A1012F00B0E21FC202C43
:1017600035202017120D080D0D1AFCFA14FBD8DCD9
:10177000C2D0CEF6F6FC0C1614FFFDEAEFE4E0A2B0
:10178000BDDFEAE6D3D2B9A8ABC1D1DBD5ECE0D955
:10179000ACB1BDB8ADB0C0C0D5D4E0C8DDB6ABBE4D
:1017A000D4D1CCEDF706FEF2D1E8F1FB07131624F5
:1017B000373511FF02F203112826414D352B3B39F5
:1017C0003D352E260A3646534C3F402111233F55C6
:1017D00037334D5349222C282B1D1F1F2F3E4A45BE
:1017E0003029FCF6FB14F1061E261F03FAF5FAF465
:1017F000FB000601160B09DCE2B8A8C7D8F3F00C11
:101800000A110200EEEFE0E0C6BFDEE8FCCFB6BB97
:10181000A7B0D3E0F2E609030AE3CEE4D4DAC7DBEB
:10182000DAF0DDEDEAF9EEC1C2D8E9CCE8F904F36B
:10183000ECDCDCCDD9D4E0E4EF000BF1C8CCA2C5E0
:10184000C9F1F806192C201C131214E8F8DA01204B
:101850003E32172418F00B223E3F3F5B484D1A03DF
:10186000F9120B1C1B283949553E4A230D0C301325
:1018700022344E390C19121E1D1D1828233C353AEE
:1018800005FDF3CBE4E903FE101F211515F8F9E07F
:10189000E5D5C3E8F906F3ECE5D3ADDDDAE0E7FE24
:1018A0001C1706CDDBE3DED5DDE7F501150AFEFBEF
:1018B000D6A8C0D4CFF0FE14FBF9F7F8F5F8F7FD81
:1018C000FC03201413CAC9C5BDD7E5FE041926219F
:1018D0001506F0F4DFD9C1BBDDF9F5E8E3E8C5B2E0
:1018E000D8E006FA1F2A21FAE5FBF7F3E109EAFC42
:1018F00022373B3525F5F00E110C344B4D3A362F7F
:101900002B2413FA17173A544B2FFF19F2F10C2519
:101910002B414E5C55463604080503ECFD252E2769
:101920001B1407DFE50012141531200FDFDFEDE196
:10193000D0CDD1D6F9080C0901DBBFBCD9C2D8FB88
:10194000E4EBEDF0F3F2E3DFECF0ED181D0BDED786
:10195000D9B1B9D1C8D2F60C21150FF3F6F3F0D6F0
:10196000D6F20A19030601EEAEB2DCFAFC17201318
:1019700005E1ECE2E7D5D8E9FB1E2A21120FCCAB3A
:10198000BDC7DCFE151C1723251504F4EDF5080D65
:10199000100F00E61503D3DCF4273A4A6958493D95
:1019A0002333E3C8EAEDF424362820281EF1FA0890
:1019B000303F5C5E2404211503DEEA0F0A22353C29
:1019C0002B1E170EE6ECCDCAED08060603FEEACD87
:1019D000D7E0FBE4F8FEE5E8DDC8C1B8BFDAE0EC2B
:1019E000243E422E281AF3DECE020406160D1018ED
:1019F00025010F0C183222241E39333E20E4C3DFA8
:101A00000A0D2E5143352E1EFFF6FE021219351017
:101A1000E3E915FEFEDFF000002814120515F5D2EB
:101A2000CBCAA9D5D3EEFEF4FBD4C1B1D1DCE3DE41
:101A300007DEFDDDBDD3BAD6CDDDE1FC0E10F80426
:101A4000F5E6D2B4CCDED3F7FDF90304F9E2F7F4FE
:101A500008131F1323021708DACFC9E2EFF9FC1CA1
:101A60001820210FF2FDF40B0A26230C181506F599
:101A7000F3E2FA020B1E2609F9EEF8ECDDCFDEDE0A
:101A800001090914FD17DBE7E3EBF1F8191601E58D
:101A9000EFF0E5D6F20A2B454F45453B1F13F2FC0C
:101AA0000C0820374132434C2924212B3D3A353B49
:101AB000334C481901FDFE1D2B445A434C3E42183D
:101AC000000D0C1B2819181F1E29F8EFDEE5130462
:101AD000212D120701FCECCABBE2E6F102060E045E
:101AE000FFE1C8D1CCD6D8D2E8D8C3D5D8C8C6CDA6
:101AF000EEF102080B1601FCDECABBB2B3C3E6F47A
:101B0000F7F30AECC2CACFFCF30017131D0DE8C9A6
:101B1000D0B7D1F304141009F809EEDDDCDBF9F1DC
:101B2000E7E1F3000D0B02FCD2EEEDFE13130AFF0A
:101B30001402D0AACED7D4EA010AFAFFEAD5CFAD73
:101B4000C5DFF61F07E6F7FBF6F0ED090C172E418F
:101B50004C29201C01FFD9DDFD13313C3D332B21E5
:101B60001A1B36342B484F60492723120D032031AE
:101B700039524D333D2F0A08FE272BFD04202F2D0F
:101B8000352B24FAEA04111A1E27091E1FDCBED2C7
:101B9000E2E0E9101F1407F9EDD4B7B3CDE308F67E
:101BA000DAEBE3DED6CEDBE6F4EE152509FCF5E64E
:101BB000E5C2ADDBDBEFFE0504ECE9D8D9F1F6F6C2
:101BC000F612311CE6FFF0D6D0D304F6131513132A
:101BD00006FAE2DBEFFBD2E401051617240B00DE68
:101BE000DA0BF40C18130E13E9C4D0CBDBD8F306D0
:101BF0000D00EEF1CFC7B5B9E3FBF3E80AF8F8053D
:101C0000F3F601180B1F3E442C191D0DEEB1EB0D20
:101C100009323E4C372D190C1825312A3D685A20BF
:101C2000373B121700283332423E4629301BFC094D
:101C300014EF041E16363541332100D4FA03061F73
:101C400022240BEDE1D1CCE1E9F2041C1BFEFBE206
:101C5000CBC0A9C7EAD1DAFDF1DCE7E8C4D2E1E8FC
:101C6000ECF91711F6F9F2C29FA2CBD1E103090AF0
:101C7000F4DDD6C3D9EEF4FB1B1BF70109F3DED567
:101C8000CDFEFBFE110A07FA01EDDADFCADDFDFA2F
:101C90000B191F2314FCD9C4F3F5FF1E230FDEF725
:101CA000ECC3D7DEE4F0070F01F0EADAC3BEB7E217
:101CB000CEE319130F021DFEEBFF0D1315394F4331
:101CC0002C32F4D5DBD90F16394E514B3323020F8A
:101CD0002536394D52415046452A1F0617432F3E9F
:101CE0003D4330362D0CF7E5041228262D41343CB7
:101CF0002405D6E405011F2D23DFF50CD5D7E0F030
:101D0000F102191206F3EED9CAC7C6C4D3F4FE0312
:101D1000EBFAF6CDD1DEEAEBFA071602F9D9C0CC20
:101D2000AEC9D8E8F1FB02F8EBCED0E0F9F903F93F
:101D3000EA09030B01F8EDCEF7FFFAF5FCFEF9070F
:101D4000FCE3D6E9EEFE0AFA0F17181608E8CAE512
:101D5000F5FF0906E1E706F9ECE7EBE3F1FAF5ED4B
:101D6000EDE9E5E2DDDBBED4F3F90407111709095B
:101D70000E06090D1B3231280EF207EFF20F19285B
:101D8000292C363720121C3A39382519363C4A4F4F
:101D90003F41231C332823181727323B11F5150F19
:101DA00018281E0A1A35372E1BF9E9040210FEDE28
:101DB000F203120800FAEBF1F8F9ECEFF3F3EFEBB2
:101DC000E5BDC4DEE7EFEEF2F5FDF1F2E4DFE4E9B4
:101DD000FF00FFD9D1DED9C6CEE1DFEFE7EDF6EEA9
:101DE000DCD5F8FF02E3DBFFF70816120208E6E68F
:101DF00000EEF1E2FAFC0BF3CEF2EEF7030EF7EB96
:101E00000619200903DAF1F9FDFCC8F2F6061407F9
:101E1000FEEDEAEAF3E2DFDFEDEAE5E8BCC3D9E98B
:101E2000FD000709160E190E0A0B0F222133FD0DB6
:101E3000160E16FC17172121272734250E2C3446A1
:101E40001E1C4038464D583E443A162D2821132377
:101E5000273517F71D1620242E2E0D0B29301F2590
:101E6000FFF60A0EFECFEFFD0116180EFFFBF2F78C
:101E7000EDE8DFF9F2EEDFB0C1C0CCE0EAECEEF164
:101E8000ECF2E9E3E3E7F5F3FACDD4EAD2E9D4C61C
:101E9000D7E1DCE2D9E4EED7D9E8FBD8DEFBF901E3
:101EA0000D1C08010FEFD8F6F3E6F1ED04E4D6F6C9
:101EB000F8FB030E0A0AE7FD0F0C0E0AF1DF05E43A
:101EC000C9E5F6FC08191901EBF7EDDEDECFE8E90C
:101ED000E8D3B0CFCFCBE1F204060A15120E0D09FC
:101EE0001A17211AFA111F0F1825FF04181E211B9B
:101EF000232A352224320F263A3B45475C523F4184
:101F00004D0D182E222421330C0F23272426333283
:101F10002F1B1519231F2A21F207F1DEF3F9070EF3
:101F2000122012F703EFE8E9E5F1F6F7D0BED0D4BE
:101F3000C7CED9E3EEEDFBEAE6EADDF1EFF5E3C269
:101F4000E7F0E7DFF0E0BCCDE4D7CFDFDEFBECDD90
:101F5000DCC3DDFDF705090E1D060818ECC8E2FC20
:101F6000EBEEF6DBE1F7FEFBFF070D010FFFEBFCED
:101F7000FE101CF2DED6D6EAE9FE100B1119FFFFA7
:101F8000ECDDDEDCE6E5F4C6B9D3D2D9D7DAEB0076
:101F9000031D09FE07051A191A0011241FBECFEFF1
:101FA000D4E0DEBFCDBF11E0A0E0B1E0E0E1F2E2BD
:101FB00002C005900D92A230B107D9F721E0A2E04E
:101FC000B1E001C01D92A930B207E1F70E94A7104D
:101FD0000C9406110C94000080E00895909100018B
:101FE000292F22952F70892F869586958695822791
:101FF000292F269526952927822787958827879533
:102000009695892B8093000108951895F19B07C040
:10201000F09903C05B9A2B9A02C05B982B980F92A1
:102020001F920FB60F9211242F933F934F935F93FC
:102030008F939F93E0910501F0910601099581111D
:1020400008C0239853982B9A5B9A8FEF88BD87BD61
:1020500018C0539A239A8091070187FF07C0F09B0D
:1020600002C0F19A01C0F198F09806C0F09902C040
:10207000F19A01C0F198F09A80910701880F88BD0C
:1020800087BD9F918F915F914F913F912F910F90BD
:102090000FBE1F900F90189580910301909104013D
:1020A000FC01F695E795F695E795E459FF4FE49125
:1020B000E093070181159D4751F48CEE9FE09093CA
:1020C0000601809305011092040110920301809192
:1020D0000301909104010196909304018093030100
:1020E00081E0089580910801811107C02CEE3FE046
:1020F0003093060120930501089580910701082E71
:10210000000C990B20910201222361F0209108011B
:10211000820F911D85369105B4F01092020128ECD2
:1021200030E00DC020910801821B91098C395FEFCE
:1021300095074CF421E02093020128E33FEFA90129
:10214000481B590BCA018093070181E0089580E87C
:102150008093610081E0809361009AE69AB998E0EB
:1021600094B993EA94BD85BD80916E00816080939F
:102170006E008FEF88BD87BD85B1836385B988B157
:102180008F6388B98BB185698BB98EB18E608EB93A
:1021900078942CE430E142E750E193B190FD04C023
:1021A000309306012093050191FD02C083E001C038
:1021B00080E094FF84E095FF80E196B190FF85E098
:1021C00091FF86E092FF81E193FF88E095FF89E02F
:1021D00094FF80E199B190FF8AE092FF8BE094FF39
:1021E0008CE097FF8DE09CB191FF82E192FF8EE041
:1021F00093FF8FE080930801882331F0509306010C
:10220000409305015998C9CF599AC7CFF894FFCF89
:02221000E700E5
:00000001FF
